{
  "_format": "hh-sol-artifact-1",
  "contractName": "TestLensApiConsumerContract",
  "sourceName": "contracts/TestLensApiConsumerContract.sol",
  "abi": [
    {
      "inputs": [
        {
          "internalType": "address",
          "name": "phatAttestor",
          "type": "address"
        }
      ],
      "stateMutability": "nonpayable",
      "type": "constructor"
    },
    {
      "inputs": [],
      "name": "BadAttestor",
      "type": "error"
    },
    {
      "inputs": [
        {
          "internalType": "uint256",
          "name": "kenLen",
          "type": "uint256"
        },
        {
          "internalType": "uint256",
          "name": "valueLen",
          "type": "uint256"
        }
      ],
      "name": "BadCondLen",
      "type": "error"
    },
    {
      "inputs": [
        {
          "internalType": "uint256",
          "name": "kenLen",
          "type": "uint256"
        },
        {
          "internalType": "uint256",
          "name": "valueLen",
          "type": "uint256"
        }
      ],
      "name": "BadUpdateLen",
      "type": "error"
    },
    {
      "inputs": [
        {
          "internalType": "uint8",
          "name": "actionId",
          "type": "uint8"
        }
      ],
      "name": "CannotDecodeAction",
      "type": "error"
    },
    {
      "inputs": [
        {
          "internalType": "bytes",
          "name": "cond",
          "type": "bytes"
        },
        {
          "internalType": "uint32",
          "name": "expected",
          "type": "uint32"
        },
        {
          "internalType": "uint32",
          "name": "actual",
          "type": "uint32"
        }
      ],
      "name": "CondNotMet",
      "type": "error"
    },
    {
      "inputs": [
        {
          "internalType": "bytes",
          "name": "data",
          "type": "bytes"
        }
      ],
      "name": "Internal_toUint32Strict_outOfBounds",
      "type": "error"
    },
    {
      "inputs": [
        {
          "internalType": "uint256",
          "name": "targetIdx",
          "type": "uint256"
        },
        {
          "internalType": "uint256",
          "name": "tailIdx",
          "type": "uint256"
        }
      ],
      "name": "InvalidPopTarget",
      "type": "error"
    },
    {
      "inputs": [],
      "name": "MetaTxSignatureNotMatch",
      "type": "error"
    },
    {
      "inputs": [
        {
          "internalType": "uint256",
          "name": "actual",
          "type": "uint256"
        },
        {
          "internalType": "uint256",
          "name": "currentNonce",
          "type": "uint256"
        }
      ],
      "name": "NonceTooLow",
      "type": "error"
    },
    {
      "inputs": [
        {
          "internalType": "uint8",
          "name": "actionId",
          "type": "uint8"
        }
      ],
      "name": "UnsupportedAction",
      "type": "error"
    },
    {
      "anonymous": false,
      "inputs": [
        {
          "indexed": false,
          "internalType": "uint256",
          "name": "reqId",
          "type": "uint256"
        },
        {
          "indexed": false,
          "internalType": "string",
          "name": "pair",
          "type": "string"
        },
        {
          "indexed": false,
          "internalType": "uint256",
          "name": "errno",
          "type": "uint256"
        }
      ],
      "name": "ErrorReceived",
      "type": "event"
    },
    {
      "anonymous": false,
      "inputs": [
        {
          "indexed": false,
          "internalType": "uint256",
          "name": "",
          "type": "uint256"
        }
      ],
      "name": "MessageProcessedTo",
      "type": "event"
    },
    {
      "anonymous": false,
      "inputs": [
        {
          "indexed": false,
          "internalType": "uint256",
          "name": "idx",
          "type": "uint256"
        },
        {
          "indexed": false,
          "internalType": "bytes",
          "name": "data",
          "type": "bytes"
        }
      ],
      "name": "MessageQueued",
      "type": "event"
    },
    {
      "anonymous": false,
      "inputs": [],
      "name": "MetaTxDecoded",
      "type": "event"
    },
    {
      "anonymous": false,
      "inputs": [
        {
          "indexed": true,
          "internalType": "address",
          "name": "previousOwner",
          "type": "address"
        },
        {
          "indexed": true,
          "internalType": "address",
          "name": "newOwner",
          "type": "address"
        }
      ],
      "name": "OwnershipTransferred",
      "type": "event"
    },
    {
      "anonymous": false,
      "inputs": [
        {
          "indexed": false,
          "internalType": "uint256",
          "name": "reqId",
          "type": "uint256"
        },
        {
          "indexed": false,
          "internalType": "string",
          "name": "pair",
          "type": "string"
        },
        {
          "indexed": false,
          "internalType": "uint256",
          "name": "value",
          "type": "uint256"
        }
      ],
      "name": "ResponseReceived",
      "type": "event"
    },
    {
      "anonymous": false,
      "inputs": [
        {
          "indexed": true,
          "internalType": "bytes32",
          "name": "role",
          "type": "bytes32"
        },
        {
          "indexed": true,
          "internalType": "bytes32",
          "name": "previousAdminRole",
          "type": "bytes32"
        },
        {
          "indexed": true,
          "internalType": "bytes32",
          "name": "newAdminRole",
          "type": "bytes32"
        }
      ],
      "name": "RoleAdminChanged",
      "type": "event"
    },
    {
      "anonymous": false,
      "inputs": [
        {
          "indexed": true,
          "internalType": "bytes32",
          "name": "role",
          "type": "bytes32"
        },
        {
          "indexed": true,
          "internalType": "address",
          "name": "account",
          "type": "address"
        },
        {
          "indexed": true,
          "internalType": "address",
          "name": "sender",
          "type": "address"
        }
      ],
      "name": "RoleGranted",
      "type": "event"
    },
    {
      "anonymous": false,
      "inputs": [
        {
          "indexed": true,
          "internalType": "bytes32",
          "name": "role",
          "type": "bytes32"
        },
        {
          "indexed": true,
          "internalType": "address",
          "name": "account",
          "type": "address"
        },
        {
          "indexed": true,
          "internalType": "address",
          "name": "sender",
          "type": "address"
        }
      ],
      "name": "RoleRevoked",
      "type": "event"
    },
    {
      "inputs": [],
      "name": "ATTESTOR_ROLE",
      "outputs": [
        {
          "internalType": "bytes32",
          "name": "",
          "type": "bytes32"
        }
      ],
      "stateMutability": "view",
      "type": "function"
    },
    {
      "inputs": [],
      "name": "DEFAULT_ADMIN_ROLE",
      "outputs": [
        {
          "internalType": "bytes32",
          "name": "",
          "type": "bytes32"
        }
      ],
      "stateMutability": "view",
      "type": "function"
    },
    {
      "inputs": [],
      "name": "ETHdAPIProxy",
      "outputs": [
        {
          "internalType": "address",
          "name": "",
          "type": "address"
        }
      ],
      "stateMutability": "view",
      "type": "function"
    },
    {
      "inputs": [
        {
          "internalType": "uint256",
          "name": "_payment",
          "type": "uint256"
        }
      ],
      "name": "calculatePayout",
      "outputs": [
        {
          "internalType": "uint256",
          "name": "",
          "type": "uint256"
        }
      ],
      "stateMutability": "view",
      "type": "function"
    },
    {
      "inputs": [],
      "name": "checkFollowers",
      "outputs": [
        {
          "internalType": "uint256",
          "name": "",
          "type": "uint256"
        }
      ],
      "stateMutability": "view",
      "type": "function"
    },
    {
      "inputs": [
        {
          "internalType": "address",
          "name": "",
          "type": "address"
        },
        {
          "internalType": "uint256",
          "name": "",
          "type": "uint256"
        }
      ],
      "name": "claimedThresholds",
      "outputs": [
        {
          "internalType": "bool",
          "name": "",
          "type": "bool"
        }
      ],
      "stateMutability": "view",
      "type": "function"
    },
    {
      "inputs": [
        {
          "internalType": "address",
          "name": "_token",
          "type": "address"
        }
      ],
      "name": "depositPayment",
      "outputs": [],
      "stateMutability": "nonpayable",
      "type": "function"
    },
    {
      "inputs": [],
      "name": "dummycount",
      "outputs": [
        {
          "internalType": "uint256",
          "name": "",
          "type": "uint256"
        }
      ],
      "stateMutability": "view",
      "type": "function"
    },
    {
      "inputs": [
        {
          "internalType": "bytes32",
          "name": "role",
          "type": "bytes32"
        }
      ],
      "name": "getRoleAdmin",
      "outputs": [
        {
          "internalType": "bytes32",
          "name": "",
          "type": "bytes32"
        }
      ],
      "stateMutability": "view",
      "type": "function"
    },
    {
      "inputs": [
        {
          "internalType": "bytes",
          "name": "key",
          "type": "bytes"
        }
      ],
      "name": "getStorage",
      "outputs": [
        {
          "internalType": "bytes",
          "name": "",
          "type": "bytes"
        }
      ],
      "stateMutability": "view",
      "type": "function"
    },
    {
      "inputs": [
        {
          "internalType": "bytes32",
          "name": "role",
          "type": "bytes32"
        },
        {
          "internalType": "address",
          "name": "account",
          "type": "address"
        }
      ],
      "name": "grantRole",
      "outputs": [],
      "stateMutability": "nonpayable",
      "type": "function"
    },
    {
      "inputs": [
        {
          "internalType": "bytes32",
          "name": "role",
          "type": "bytes32"
        },
        {
          "internalType": "address",
          "name": "account",
          "type": "address"
        }
      ],
      "name": "hasRole",
      "outputs": [
        {
          "internalType": "bool",
          "name": "",
          "type": "bool"
        }
      ],
      "stateMutability": "view",
      "type": "function"
    },
    {
      "inputs": [
        {
          "internalType": "bytes",
          "name": "malformedData",
          "type": "bytes"
        }
      ],
      "name": "malformedRequest",
      "outputs": [],
      "stateMutability": "nonpayable",
      "type": "function"
    },
    {
      "inputs": [
        {
          "internalType": "address",
          "name": "from",
          "type": "address"
        }
      ],
      "name": "metaTxGetNonce",
      "outputs": [
        {
          "internalType": "uint256",
          "name": "",
          "type": "uint256"
        }
      ],
      "stateMutability": "view",
      "type": "function"
    },
    {
      "inputs": [
        {
          "internalType": "address",
          "name": "from",
          "type": "address"
        },
        {
          "internalType": "bytes",
          "name": "data",
          "type": "bytes"
        }
      ],
      "name": "metaTxPrepare",
      "outputs": [
        {
          "components": [
            {
              "internalType": "address",
              "name": "from",
              "type": "address"
            },
            {
              "internalType": "uint256",
              "name": "nonce",
              "type": "uint256"
            },
            {
              "internalType": "bytes",
              "name": "data",
              "type": "bytes"
            }
          ],
          "internalType": "struct MetaTxReceiver.ForwardRequest",
          "name": "",
          "type": "tuple"
        },
        {
          "internalType": "bytes32",
          "name": "",
          "type": "bytes32"
        }
      ],
      "stateMutability": "view",
      "type": "function"
    },
    {
      "inputs": [
        {
          "internalType": "address",
          "name": "from",
          "type": "address"
        },
        {
          "internalType": "bytes",
          "name": "data",
          "type": "bytes"
        },
        {
          "internalType": "uint256",
          "name": "nonce",
          "type": "uint256"
        }
      ],
      "name": "metaTxPrepareWithNonce",
      "outputs": [
        {
          "components": [
            {
              "internalType": "address",
              "name": "from",
              "type": "address"
            },
            {
              "internalType": "uint256",
              "name": "nonce",
              "type": "uint256"
            },
            {
              "internalType": "bytes",
              "name": "data",
              "type": "bytes"
            }
          ],
          "internalType": "struct MetaTxReceiver.ForwardRequest",
          "name": "",
          "type": "tuple"
        },
        {
          "internalType": "bytes32",
          "name": "",
          "type": "bytes32"
        }
      ],
      "stateMutability": "view",
      "type": "function"
    },
    {
      "inputs": [
        {
          "components": [
            {
              "internalType": "address",
              "name": "from",
              "type": "address"
            },
            {
              "internalType": "uint256",
              "name": "nonce",
              "type": "uint256"
            },
            {
              "internalType": "bytes",
              "name": "data",
              "type": "bytes"
            }
          ],
          "internalType": "struct MetaTxReceiver.ForwardRequest",
          "name": "req",
          "type": "tuple"
        },
        {
          "internalType": "bytes",
          "name": "signature",
          "type": "bytes"
        }
      ],
      "name": "metaTxRollupU256CondEq",
      "outputs": [
        {
          "internalType": "bool",
          "name": "",
          "type": "bool"
        }
      ],
      "stateMutability": "nonpayable",
      "type": "function"
    },
    {
      "inputs": [
        {
          "components": [
            {
              "internalType": "address",
              "name": "from",
              "type": "address"
            },
            {
              "internalType": "uint256",
              "name": "nonce",
              "type": "uint256"
            },
            {
              "internalType": "bytes",
              "name": "data",
              "type": "bytes"
            }
          ],
          "internalType": "struct MetaTxReceiver.ForwardRequest",
          "name": "req",
          "type": "tuple"
        },
        {
          "internalType": "bytes",
          "name": "signature",
          "type": "bytes"
        }
      ],
      "name": "metaTxVerify",
      "outputs": [
        {
          "internalType": "bool",
          "name": "",
          "type": "bool"
        }
      ],
      "stateMutability": "view",
      "type": "function"
    },
    {
      "inputs": [],
      "name": "owner",
      "outputs": [
        {
          "internalType": "address",
          "name": "",
          "type": "address"
        }
      ],
      "stateMutability": "view",
      "type": "function"
    },
    {
      "inputs": [],
      "name": "paymentRequirements",
      "outputs": [
        {
          "internalType": "uint256",
          "name": "",
          "type": "uint256"
        }
      ],
      "stateMutability": "nonpayable",
      "type": "function"
    },
    {
      "inputs": [
        {
          "internalType": "bytes",
          "name": "key",
          "type": "bytes"
        }
      ],
      "name": "queueGetBytes",
      "outputs": [
        {
          "internalType": "bytes",
          "name": "",
          "type": "bytes"
        }
      ],
      "stateMutability": "view",
      "type": "function"
    },
    {
      "inputs": [],
      "name": "queueGetPrefix",
      "outputs": [
        {
          "internalType": "bytes",
          "name": "",
          "type": "bytes"
        }
      ],
      "stateMutability": "pure",
      "type": "function"
    },
    {
      "inputs": [
        {
          "internalType": "bytes",
          "name": "key",
          "type": "bytes"
        }
      ],
      "name": "queueGetUint",
      "outputs": [
        {
          "internalType": "uint32",
          "name": "",
          "type": "uint32"
        }
      ],
      "stateMutability": "view",
      "type": "function"
    },
    {
      "inputs": [
        {
          "internalType": "address",
          "name": "_dapiProxy",
          "type": "address"
        }
      ],
      "name": "readDapi",
      "outputs": [
        {
          "internalType": "uint256",
          "name": "",
          "type": "uint256"
        }
      ],
      "stateMutability": "view",
      "type": "function"
    },
    {
      "inputs": [],
      "name": "renounceOwnership",
      "outputs": [],
      "stateMutability": "nonpayable",
      "type": "function"
    },
    {
      "inputs": [
        {
          "internalType": "bytes32",
          "name": "role",
          "type": "bytes32"
        },
        {
          "internalType": "address",
          "name": "account",
          "type": "address"
        }
      ],
      "name": "renounceRole",
      "outputs": [],
      "stateMutability": "nonpayable",
      "type": "function"
    },
    {
      "inputs": [
        {
          "internalType": "string",
          "name": "profileId",
          "type": "string"
        }
      ],
      "name": "request",
      "outputs": [],
      "stateMutability": "nonpayable",
      "type": "function"
    },
    {
      "inputs": [
        {
          "internalType": "bytes32",
          "name": "role",
          "type": "bytes32"
        },
        {
          "internalType": "address",
          "name": "account",
          "type": "address"
        }
      ],
      "name": "revokeRole",
      "outputs": [],
      "stateMutability": "nonpayable",
      "type": "function"
    },
    {
      "inputs": [
        {
          "internalType": "bytes[]",
          "name": "condKeys",
          "type": "bytes[]"
        },
        {
          "internalType": "bytes[]",
          "name": "condValues",
          "type": "bytes[]"
        },
        {
          "internalType": "bytes[]",
          "name": "updateKeys",
          "type": "bytes[]"
        },
        {
          "internalType": "bytes[]",
          "name": "updateValues",
          "type": "bytes[]"
        },
        {
          "internalType": "bytes[]",
          "name": "actions",
          "type": "bytes[]"
        }
      ],
      "name": "rollupU256CondEq",
      "outputs": [
        {
          "internalType": "bool",
          "name": "",
          "type": "bool"
        }
      ],
      "stateMutability": "nonpayable",
      "type": "function"
    },
    {
      "inputs": [
        {
          "internalType": "address",
          "name": "phatAttestor",
          "type": "address"
        }
      ],
      "name": "setAttestor",
      "outputs": [],
      "stateMutability": "nonpayable",
      "type": "function"
    },
    {
      "inputs": [
        {
          "internalType": "address",
          "name": "_eth",
          "type": "address"
        }
      ],
      "name": "setDapiProxy",
      "outputs": [],
      "stateMutability": "nonpayable",
      "type": "function"
    },
    {
      "inputs": [
        {
          "internalType": "bytes4",
          "name": "interfaceId",
          "type": "bytes4"
        }
      ],
      "name": "supportsInterface",
      "outputs": [
        {
          "internalType": "bool",
          "name": "",
          "type": "bool"
        }
      ],
      "stateMutability": "view",
      "type": "function"
    },
    {
      "inputs": [],
      "name": "testValue",
      "outputs": [
        {
          "internalType": "uint256",
          "name": "",
          "type": "uint256"
        }
      ],
      "stateMutability": "view",
      "type": "function"
    },
    {
      "inputs": [],
      "name": "thresholdFollowers1",
      "outputs": [
        {
          "internalType": "uint256",
          "name": "",
          "type": "uint256"
        }
      ],
      "stateMutability": "view",
      "type": "function"
    },
    {
      "inputs": [],
      "name": "thresholdFollowers2",
      "outputs": [
        {
          "internalType": "uint256",
          "name": "",
          "type": "uint256"
        }
      ],
      "stateMutability": "view",
      "type": "function"
    },
    {
      "inputs": [],
      "name": "thresholdFollowers3",
      "outputs": [
        {
          "internalType": "uint256",
          "name": "",
          "type": "uint256"
        }
      ],
      "stateMutability": "view",
      "type": "function"
    },
    {
      "inputs": [],
      "name": "thresholdbonus",
      "outputs": [
        {
          "internalType": "uint256",
          "name": "",
          "type": "uint256"
        }
      ],
      "stateMutability": "view",
      "type": "function"
    },
    {
      "inputs": [],
      "name": "thresholdpayment1",
      "outputs": [
        {
          "internalType": "uint256",
          "name": "",
          "type": "uint256"
        }
      ],
      "stateMutability": "view",
      "type": "function"
    },
    {
      "inputs": [],
      "name": "thresholdpayment2",
      "outputs": [
        {
          "internalType": "uint256",
          "name": "",
          "type": "uint256"
        }
      ],
      "stateMutability": "view",
      "type": "function"
    },
    {
      "inputs": [],
      "name": "thresholdpayment3",
      "outputs": [
        {
          "internalType": "uint256",
          "name": "",
          "type": "uint256"
        }
      ],
      "stateMutability": "view",
      "type": "function"
    },
    {
      "inputs": [
        {
          "internalType": "bytes",
          "name": "_bytes",
          "type": "bytes"
        }
      ],
      "name": "toUint32Strict",
      "outputs": [
        {
          "internalType": "uint32",
          "name": "",
          "type": "uint32"
        }
      ],
      "stateMutability": "pure",
      "type": "function"
    },
    {
      "inputs": [
        {
          "internalType": "address",
          "name": "",
          "type": "address"
        }
      ],
      "name": "totalEarned",
      "outputs": [
        {
          "internalType": "uint256",
          "name": "",
          "type": "uint256"
        }
      ],
      "stateMutability": "view",
      "type": "function"
    },
    {
      "inputs": [
        {
          "internalType": "address",
          "name": "newOwner",
          "type": "address"
        }
      ],
      "name": "transferOwnership",
      "outputs": [],
      "stateMutability": "nonpayable",
      "type": "function"
    },
    {
      "inputs": [
        {
          "internalType": "uint256",
          "name": "_count",
          "type": "uint256"
        }
      ],
      "name": "updateDummyCount",
      "outputs": [],
      "stateMutability": "nonpayable",
      "type": "function"
    },
    {
      "inputs": [
        {
          "internalType": "address",
          "name": "_token",
          "type": "address"
        }
      ],
      "name": "withdrawPayment",
      "outputs": [],
      "stateMutability": "nonpayable",
      "type": "function"
    }
  ],
  "bytecode": "0x610140604052600060055560006006556000600755600060085560006009556000600a556000600b556000600c556000600d5560016012553480156200004457600080fd5b50604051620062033803806200620383398181016040528101906200006a9190620004ba565b6040518060400160405280601881526020017f50686174526f6c6c75704d6574615478526563656976657200000000000000008152506040518060400160405280600581526020017f302e302e31000000000000000000000000000000000000000000000000000000815250600160008190555060008280519060200120905060008280519060200120905060007f8b73c3c69bb8fe3d512ecc4cf759cc79239f7b179b0ffacaa9a75d522b39400f90508260e081815250508161010081815250504660a0818152505062000147818484620001e960201b60201c565b608081815250503073ffffffffffffffffffffffffffffffffffffffff1660c08173ffffffffffffffffffffffffffffffffffffffff16815250508061012081815250505050505050620001b0620001a46200022560201b60201c565b6200022d60201b60201c565b620001e27fa7e0cd0f2772b23ee4c329892293a6bd99d48c306b094d6d008c9a8bb8b731e482620002f360201b60201c565b5062000590565b600083838346306040516020016200020695949392919062000533565b6040516020818303038152906040528051906020012090509392505050565b600033905090565b6000600460009054906101000a900473ffffffffffffffffffffffffffffffffffffffff16905081600460006101000a81548173ffffffffffffffffffffffffffffffffffffffff021916908373ffffffffffffffffffffffffffffffffffffffff1602179055508173ffffffffffffffffffffffffffffffffffffffff168173ffffffffffffffffffffffffffffffffffffffff167f8be0079c531659141344cd1fd0a4f28419497f9722a3daafe3b4186f6b6457e060405160405180910390a35050565b620003058282620003e560201b60201c565b620003e15760016002600084815260200190815260200160002060000160008373ffffffffffffffffffffffffffffffffffffffff1673ffffffffffffffffffffffffffffffffffffffff16815260200190815260200160002060006101000a81548160ff021916908315150217905550620003866200022560201b60201c565b73ffffffffffffffffffffffffffffffffffffffff168173ffffffffffffffffffffffffffffffffffffffff16837f2f8788117e7eff1d82e926ec794901d17c78024a50270940304540a733656f0d60405160405180910390a45b5050565b60006002600084815260200190815260200160002060000160008373ffffffffffffffffffffffffffffffffffffffff1673ffffffffffffffffffffffffffffffffffffffff16815260200190815260200160002060009054906101000a900460ff16905092915050565b600080fd5b600073ffffffffffffffffffffffffffffffffffffffff82169050919050565b6000620004828262000455565b9050919050565b620004948162000475565b8114620004a057600080fd5b50565b600081519050620004b48162000489565b92915050565b600060208284031215620004d357620004d262000450565b5b6000620004e384828501620004a3565b91505092915050565b6000819050919050565b6200050181620004ec565b82525050565b6000819050919050565b6200051c8162000507565b82525050565b6200052d8162000475565b82525050565b600060a0820190506200054a6000830188620004f6565b620005596020830187620004f6565b620005686040830186620004f6565b62000577606083018562000511565b62000586608083018462000522565b9695505050505050565b60805160a05160c05160e0516101005161012051615c23620005e060003960006128e20152600061292401526000612903015260006128380152600061288e015260006128b70152615c236000f3fe608060405234801561001057600080fd5b506004361061027f5760003560e01c80638af5de721161015c578063caa0ff21116100ce578063ebde4f8d11610087578063ebde4f8d14610800578063eecfe3261461081e578063f2c521091461084e578063f2fde38b1461086c578063f4034a9614610888578063f5770b1f146108b85761027f565b8063caa0ff211461071a578063ce734b101461074a578063d547741f1461077a578063d56d017e14610796578063d7f59972146107b4578063dfb7397f146107d05761027f565b8063a217fddf11610120578063a217fddf14610630578063a3baef011461064e578063a51831a81461066c578063ad0bc4641461069c578063b4d70180146106cc578063bbbfe446146106ea5761027f565b80638af5de72146105765780638da5cb5b146105945780638f5744ac146105b257806391d14854146105d05780639b1d9692146106005761027f565b80633bb91c77116101f557806367756fe9116101b957806367756fe9146104dc578063715018a6146104f85780637f4f70ee14610502578063843739cd1461051e57806388a46ccc1461053c5780638ac28d5a1461055a5761027f565b80633bb91c77146103fd5780635232f0d71461042d578063531161371461045e578063627236441461048e578063649aca4a146104ac5761027f565b806329dde4441161024757806329dde444146103515780632c1998891461036d5780632f2ff15d14610389578063310edd44146103a557806336568abe146103c357806338ffaa3d146103df5761027f565b806301ffc9a71461028457806314cc30ef146102b457806322dae16c146102d2578063238ea82e14610303578063248a9ca314610321575b600080fd5b61029e6004803603810190610299919061381c565b6108d4565b6040516102ab9190613864565b60405180910390f35b6102bc61094e565b6040516102c99190613898565b60405180910390f35b6102ec60048036038101906102e791906139a2565b610954565b6040516102fa929190613b2d565b60405180910390f35b61030b610b1d565b6040516103189190613898565b60405180910390f35b61033b60048036038101906103369190613b89565b610b23565b6040516103489190613bb6565b60405180910390f35b61036b60048036038101906103669190613bd1565b610b43565b005b61038760048036038101906103829190613c54565b610b8f565b005b6103a3600480360381019061039e9190613ca1565b610c05565b005b6103ad610c26565b6040516103ba9190613898565b60405180910390f35b6103dd60048036038101906103d89190613ca1565b610c2c565b005b6103e7610caf565b6040516103f49190613898565b60405180910390f35b61041760048036038101906104129190613ce1565b610cbe565b6040516104249190613898565b60405180910390f35b61044760048036038101906104429190613d0e565b610d08565b604051610455929190613b2d565b60405180910390f35b61047860048036038101906104739190613e9e565b610d69565b6040516104859190613f06565b60405180910390f35b610496610de4565b6040516104a39190613bb6565b60405180910390f35b6104c660048036038101906104c19190613bd1565b610e08565b6040516104d39190613898565b60405180910390f35b6104f660048036038101906104f19190613bd1565b610e20565b005b610500610f5f565b005b61051c60048036038101906105179190613ce1565b610f73565b005b610526610f7d565b6040516105339190613f6b565b60405180910390f35b610544610fba565b6040516105519190613898565b60405180910390f35b610574600480360381019061056f9190613bd1565b6113e2565b005b61057e6114fa565b60405161058b9190613898565b60405180910390f35b61059c611500565b6040516105a99190613f9c565b60405180910390f35b6105ba61152a565b6040516105c79190613898565b60405180910390f35b6105ea60048036038101906105e59190613ca1565b611530565b6040516105f79190613864565b60405180910390f35b61061a60048036038101906106159190613e9e565b61159b565b6040516106279190613f6b565b60405180910390f35b6106386116a7565b6040516106459190613bb6565b60405180910390f35b6106566116ae565b6040516106639190613898565b60405180910390f35b6106866004803603810190610681919061400d565b6116b4565b6040516106939190613864565b60405180910390f35b6106b660048036038101906106b1919061414e565b611772565b6040516106c39190613864565b60405180910390f35b6106d4611980565b6040516106e19190613898565b60405180910390f35b61070460048036038101906106ff919061414e565b611986565b6040516107119190613864565b60405180910390f35b610734600480360381019061072f9190613e9e565b611b1c565b6040516107419190613f6b565b60405180910390f35b610764600480360381019061075f9190613e9e565b611bcc565b6040516107719190613f06565b60405180910390f35b610794600480360381019061078f9190613ca1565b611cdf565b005b61079e611d00565b6040516107ab9190613f9c565b60405180910390f35b6107ce60048036038101906107c991906141ca565b611d26565b005b6107ea60048036038101906107e59190614217565b611df0565b6040516107f79190613864565b60405180910390f35b610808611e29565b6040516108159190613898565b60405180910390f35b61083860048036038101906108339190613bd1565b611e2f565b6040516108459190613898565b60405180910390f35b610856611ed0565b6040516108639190613898565b60405180910390f35b61088660048036038101906108819190613bd1565b611ed6565b005b6108a2600480360381019061089d9190613bd1565b611f59565b6040516108af9190613898565b60405180910390f35b6108d260048036038101906108cd9190613bd1565b611fa2565b005b60007f7965db0b000000000000000000000000000000000000000000000000000000007bffffffffffffffffffffffffffffffffffffffffffffffffffffffff1916827bffffffffffffffffffffffffffffffffffffffffffffffffffffffff19161480610947575061094682611fcf565b5b9050919050565b600b5481565b61095c6136dc565b6000600160008773ffffffffffffffffffffffffffffffffffffffff1673ffffffffffffffffffffffffffffffffffffffff16815260200190815260200160002054831015610a235782600160008873ffffffffffffffffffffffffffffffffffffffff1673ffffffffffffffffffffffffffffffffffffffff168152602001908152602001600020546040517f045f356c000000000000000000000000000000000000000000000000000000008152600401610a1a929190614257565b60405180910390fd5b600060405180606001604052808873ffffffffffffffffffffffffffffffffffffffff16815260200185815260200187878080601f016020809104026020016040519081016040528093929190818152602001838380828437600081840152601f19601f8201169050808301925050505050505081525090506000610b0a7f2c521d146a6f6c09462cb178367b028f1718b1f01d7995bb405dae702c2bee7d89878a8a604051610ad49291906142b0565b6040518091039020604051602001610aef94939291906142c9565b60405160208183030381529060405280519060200120612039565b9050818193509350505094509492505050565b60085481565b600060026000838152602001908152602001600020600101549050919050565b610b4b612053565b80600e60006101000a81548173ffffffffffffffffffffffffffffffffffffffff021916908373ffffffffffffffffffffffffffffffffffffffff16021790555050565b600060125490508282600f60008481526020019081526020016000209182610bb8929190614525565b50610be5818484604051602001610bd193929190614633565b6040516020818303038152906040526120d1565b50600160126000828254610bf99190614694565b92505081905550505050565b610c0e82610b23565b610c17816121d0565b610c2183836121e4565b505050565b600c5481565b610c346122c5565b73ffffffffffffffffffffffffffffffffffffffff168173ffffffffffffffffffffffffffffffffffffffff1614610ca1576040517f08c379a0000000000000000000000000000000000000000000000000000000008152600401610c989061473a565b60405180910390fd5b610cab82826122cd565b5050565b600080600d5490508091505090565b600080610cec600e60009054906101000a900473ffffffffffffffffffffffffffffffffffffffff16611e2f565b905060008184610cfc9190614789565b90508092505050919050565b610d106136dc565b6000610d5d858585600160008a73ffffffffffffffffffffffffffffffffffffffff1673ffffffffffffffffffffffffffffffffffffffff16815260200190815260200160002054610954565b91509150935093915050565b600080825103610d7c5760009050610ddf565b6020825114610dc257816040517f3d7dc906000000000000000000000000000000000000000000000000000000008152600401610db99190613f6b565b60405180910390fd5b600082806020019051810190610dd891906147e6565b9050809150505b919050565b7fa7e0cd0f2772b23ee4c329892293a6bd99d48c306b094d6d008c9a8bb8b731e481565b60106020528060005260406000206000915090505481565b678ac7230489e80000600681905550678ac7230489e80000600781905550678ac7230489e80000600881905550678ac7230489e800006009819055506001600a819055506002600b819055506003600c819055506000600954600854600754600654610e8c9190614694565b610e969190614694565b610ea09190614694565b90508173ffffffffffffffffffffffffffffffffffffffff166323b872dd3330846040518463ffffffff1660e01b8152600401610edf93929190614813565b6020604051808303816000875af1925050508015610f1b57506040513d601f19601f82011682018060405250810190610f189190614876565b60015b610f5a576040517f08c379a0000000000000000000000000000000000000000000000000000000008152600401610f51906148ef565b60405180910390fd5b505050565b610f67612053565b610f7160006123af565b565b80600d8190555050565b60606040518060400160405280600281526020017f712f000000000000000000000000000000000000000000000000000000000000815250905090565b600080610fc5610caf565b9050600c548111801561103d5750601160003373ffffffffffffffffffffffffffffffffffffffff1673ffffffffffffffffffffffffffffffffffffffff1681526020019081526020016000206002600381106110255761102461490f565b5b602091828204019190069054906101000a900460ff16155b1561110e576001601160003373ffffffffffffffffffffffffffffffffffffffff1673ffffffffffffffffffffffffffffffffffffffff1681526020019081526020016000206002600381106110965761109561490f565b5b602091828204019190066101000a81548160ff021916908315150217905550600854601060003373ffffffffffffffffffffffffffffffffffffffff1673ffffffffffffffffffffffffffffffffffffffff16815260200190815260200160002060008282546111069190614694565b925050819055505b600b54811180156111845750601160003373ffffffffffffffffffffffffffffffffffffffff1673ffffffffffffffffffffffffffffffffffffffff16815260200190815260200160002060016003811061116c5761116b61490f565b5b602091828204019190069054906101000a900460ff16155b15611255576001601160003373ffffffffffffffffffffffffffffffffffffffff1673ffffffffffffffffffffffffffffffffffffffff1681526020019081526020016000206001600381106111dd576111dc61490f565b5b602091828204019190066101000a81548160ff021916908315150217905550600754601060003373ffffffffffffffffffffffffffffffffffffffff1673ffffffffffffffffffffffffffffffffffffffff168152602001908152602001600020600082825461124d9190614694565b925050819055505b600a54811180156112cb5750601160003373ffffffffffffffffffffffffffffffffffffffff1673ffffffffffffffffffffffffffffffffffffffff1681526020019081526020016000206000600381106112b3576112b261490f565b5b602091828204019190069054906101000a900460ff16155b1561139c576001601160003373ffffffffffffffffffffffffffffffffffffffff1673ffffffffffffffffffffffffffffffffffffffff1681526020019081526020016000206000600381106113245761132361490f565b5b602091828204019190066101000a81548160ff021916908315150217905550600654601060003373ffffffffffffffffffffffffffffffffffffffff1673ffffffffffffffffffffffffffffffffffffffff16815260200190815260200160002060008282546113949190614694565b925050819055505b601060003373ffffffffffffffffffffffffffffffffffffffff1673ffffffffffffffffffffffffffffffffffffffff1681526020019081526020016000205491505090565b6000601060003373ffffffffffffffffffffffffffffffffffffffff1673ffffffffffffffffffffffffffffffffffffffff168152602001908152602001600020819055506000611431610fba565b905060008111156114f6578173ffffffffffffffffffffffffffffffffffffffff166323b872dd3330846040518463ffffffff1660e01b815260040161147993929190614813565b6020604051808303816000875af19250505080156114b557506040513d601f19601f820116820180604052508101906114b29190614876565b60015b6114f4576040517f08c379a00000000000000000000000000000000000000000000000000000000081526004016114eb9061498a565b60405180910390fd5b505b5050565b60055481565b6000600460009054906101000a900473ffffffffffffffffffffffffffffffffffffffff16905090565b60075481565b60006002600084815260200190815260200160002060000160008373ffffffffffffffffffffffffffffffffffffffff1673ffffffffffffffffffffffffffffffffffffffff16815260200190815260200160002060009054906101000a900460ff16905092915050565b606060006040518060400160405280600281526020017f712f000000000000000000000000000000000000000000000000000000000000815250836040516020016115e79291906149db565b604051602081830303815290604052905060038160405161160891906149ff565b9081526020016040518091039020805461162190614348565b80601f016020809104026020016040519081016040528092919081815260200182805461164d90614348565b801561169a5780601f1061166f5761010080835404028352916020019161169a565b820191906000526020600020905b81548152906001019060200180831161167d57829003601f168201915b5050505050915050919050565b6000801b81565b60095481565b60003073ffffffffffffffffffffffffffffffffffffffff163373ffffffffffffffffffffffffffffffffffffffff161415801561171957506117177fa7e0cd0f2772b23ee4c329892293a6bd99d48c306b094d6d008c9a8bb8b731e433611530565b155b15611750576040517f20d82bef00000000000000000000000000000000000000000000000000000000815260040160405180910390fd5b6117628b8b8b8b8b8b8b8b8b8b612475565b90509a9950505050505050505050565b6000838383611782838383611986565b6117b8576040517fbde0493900000000000000000000000000000000000000000000000000000000815260040160405180910390fd5b600183602001356117c99190614694565b600160008560000160208101906117e09190613bd1565b73ffffffffffffffffffffffffffffffffffffffff1673ffffffffffffffffffffffffffffffffffffffff1681526020019081526020016000208190555061185a7fa7e0cd0f2772b23ee4c329892293a6bd99d48c306b094d6d008c9a8bb8b731e48860000160208101906118559190613bd1565b611530565b611890576040517f20d82bef00000000000000000000000000000000000000000000000000000000815260040160405180910390fd5b60008060008060008b80604001906118a89190614a25565b8101906118b59190614b69565b945094509450945094507fd51c7c5244bba290f6c37777de0bc20a70c18abd55539658bc63251379297dcd60405160405180910390a13073ffffffffffffffffffffffffffffffffffffffff1663a51831a886868686866040518663ffffffff1660e01b815260040161192c959493929190614d32565b6020604051808303816000875af115801561194b573d6000803e3d6000fd5b505050506040513d601f19601f8201168201806040525081019061196f9190614876565b985050505050505050509392505050565b600d5481565b600080611a6f84848080601f016020809104026020016040519081016040528093929190818152602001838380828437600081840152601f19601f82011690508083019250505050505050611a617f2c521d146a6f6c09462cb178367b028f1718b1f01d7995bb405dae702c2bee7d886000016020810190611a089190613bd1565b89602001358a8060400190611a1d9190614a25565b604051611a2b9291906142b0565b6040518091039020604051602001611a4694939291906142c9565b60405160208183030381529060405280519060200120612039565b61280d90919063ffffffff16565b9050846020013560016000876000016020810190611a8d9190613bd1565b73ffffffffffffffffffffffffffffffffffffffff1673ffffffffffffffffffffffffffffffffffffffff16815260200190815260200160002054148015611b125750846000016020810190611ae39190613bd1565b73ffffffffffffffffffffffffffffffffffffffff168173ffffffffffffffffffffffffffffffffffffffff16145b9150509392505050565b6060600382604051611b2e91906149ff565b90815260200160405180910390208054611b4790614348565b80601f0160208091040260200160405190810160405280929190818152602001828054611b7390614348565b8015611bc05780601f10611b9557610100808354040283529160200191611bc0565b820191906000526020600020905b815481529060010190602001808311611ba357829003601f168201915b50505050509050919050565b6000806040518060400160405280600281526020017f712f00000000000000000000000000000000000000000000000000000000000081525083604051602001611c179291906149db565b6040516020818303038152906040529050611cd7600382604051611c3b91906149ff565b90815260200160405180910390208054611c5490614348565b80601f0160208091040260200160405190810160405280929190818152602001828054611c8090614348565b8015611ccd5780601f10611ca257610100808354040283529160200191611ccd565b820191906000526020600020905b815481529060010190602001808311611cb057829003601f168201915b5050505050610d69565b915050919050565b611ce882610b23565b611cf1816121d0565b611cfb83836122cd565b505050565b600e60009054906101000a900473ffffffffffffffffffffffffffffffffffffffff1681565b600060125490506040518060400160405280600d81526020017f6d616c666f726d65645f72657100000000000000000000000000000000000000815250600f60008381526020019081526020016000209081611d829190614db3565b50611dd083838080601f016020809104026020016040519081016040528093929190818152602001838380828437600081840152601f19601f820116905080830192505050505050506120d1565b50600160126000828254611de49190614694565b92505081905550505050565b60116020528160005260406000208160038110611e0c57600080fd5b60209182820401919006915091509054906101000a900460ff1681565b600a5481565b6000808273ffffffffffffffffffffffffffffffffffffffff166357de26a46040518163ffffffff1660e01b81526004016040805180830381865afa158015611e7c573d6000803e3d6000fd5b505050506040513d601f19601f82011682018060405250810190611ea09190614ebe565b5090506000817bffffffffffffffffffffffffffffffffffffffffffffffffffffffff1690508092505050919050565b60065481565b611ede612053565b600073ffffffffffffffffffffffffffffffffffffffff168173ffffffffffffffffffffffffffffffffffffffff1603611f4d576040517f08c379a0000000000000000000000000000000000000000000000000000000008152600401611f4490614f70565b60405180910390fd5b611f56816123af565b50565b6000600160008373ffffffffffffffffffffffffffffffffffffffff1673ffffffffffffffffffffffffffffffffffffffff168152602001908152602001600020549050919050565b611fcc7fa7e0cd0f2772b23ee4c329892293a6bd99d48c306b094d6d008c9a8bb8b731e4826121e4565b50565b60007f01ffc9a7000000000000000000000000000000000000000000000000000000007bffffffffffffffffffffffffffffffffffffffffffffffffffffffff1916827bffffffffffffffffffffffffffffffffffffffffffffffffffffffff1916149050919050565b600061204c612046612834565b8361294e565b9050919050565b61205b6122c5565b73ffffffffffffffffffffffffffffffffffffffff16612079611500565b73ffffffffffffffffffffffffffffffffffffffff16146120cf576040517f08c379a00000000000000000000000000000000000000000000000000000000081526004016120c690614fdc565b60405180910390fd5b565b6000806121126040518060400160405280600581526020017f5f7461696c000000000000000000000000000000000000000000000000000000815250611bcc565b90506000816040516020016121279190613f06565b60405160208183030381529060405290506121428185612981565b61218d6040518060400160405280600581526020017f5f7461696c0000000000000000000000000000000000000000000000000000008152506001846121889190614ffc565b612a0d565b7f907e5e373368eaab41cf7fd560721ee39c92964cc7abc6eba2acb769b1f7079982856040516121be929190615065565b60405180910390a18192505050919050565b6121e1816121dc6122c5565b612ab8565b50565b6121ee8282611530565b6122c15760016002600084815260200190815260200160002060000160008373ffffffffffffffffffffffffffffffffffffffff1673ffffffffffffffffffffffffffffffffffffffff16815260200190815260200160002060006101000a81548160ff0219169083151502179055506122666122c5565b73ffffffffffffffffffffffffffffffffffffffff168173ffffffffffffffffffffffffffffffffffffffff16837f2f8788117e7eff1d82e926ec794901d17c78024a50270940304540a733656f0d60405160405180910390a45b5050565b600033905090565b6122d78282611530565b156123ab5760006002600084815260200190815260200160002060000160008373ffffffffffffffffffffffffffffffffffffffff1673ffffffffffffffffffffffffffffffffffffffff16815260200190815260200160002060006101000a81548160ff0219169083151502179055506123506122c5565b73ffffffffffffffffffffffffffffffffffffffff168173ffffffffffffffffffffffffffffffffffffffff16837ff6391f5c32d9c69d2a47ea670b442974b53935d1edc7fd64eb21e047a839171b60405160405180910390a45b5050565b6000600460009054906101000a900473ffffffffffffffffffffffffffffffffffffffff16905081600460006101000a81548173ffffffffffffffffffffffffffffffffffffffff021916908373ffffffffffffffffffffffffffffffffffffffff1602179055508173ffffffffffffffffffffffffffffffffffffffff168173ffffffffffffffffffffffffffffffffffffffff167f8be0079c531659141344cd1fd0a4f28419497f9722a3daafe3b4186f6b6457e060405160405180910390a35050565b600061247f612b3d565b888890508b8b9050146124d1578a8a9050898990506040517f60e568880000000000000000000000000000000000000000000000000000000081526004016124c8929190614257565b60405180910390fd5b8484905087879050146125235786869050858590506040517fcca1bd4200000000000000000000000000000000000000000000000000000000815260040161251a929190614257565b60405180910390fd5b60005b8b8b905081101561270b57600061260760038e8e8581811061254b5761254a61490f565b5b905060200281019061255d9190614a25565b60405161256b9291906142b0565b9081526020016040518091039020805461258490614348565b80601f01602080910402602001604051908101604052809291908181526020018280546125b090614348565b80156125fd5780601f106125d2576101008083540402835291602001916125fd565b820191906000526020600020905b8154815290600101906020018083116125e057829003601f168201915b5050505050610d69565b9050600061267b8c8c858181106126215761262061490f565b5b90506020028101906126339190614a25565b8080601f016020809104026020016040519081016040528093929190818152602001838380828437600081840152601f19601f82011690508083019250505050505050610d69565b90508063ffffffff168263ffffffff16146126f6578d8d848181106126a3576126a261490f565b5b90506020028101906126b59190614a25565b82846040517fb2e58ea60000000000000000000000000000000000000000000000000000000081526004016126ed94939291906150c2565b60405180910390fd5b5050808061270390615102565b915050612526565b5060005b878790508110156127a35785858281811061272d5761272c61490f565b5b905060200281019061273f9190614a25565b60038a8a858181106127545761275361490f565b5b90506020028101906127669190614a25565b6040516127749291906142b0565b9081526020016040518091039020918261278f9291906151b0565b50808061279b90615102565b91505061270f565b5060005b838390508110156127f2576127df8484838181106127c8576127c761490f565b5b90506020028101906127da9190614a25565b612b8c565b80806127ea90615102565b9150506127a7565b50600190506127ff612e07565b9a9950505050505050505050565b600080600061281c8585612e11565b9150915061282981612e62565b819250505092915050565b60007f000000000000000000000000000000000000000000000000000000000000000073ffffffffffffffffffffffffffffffffffffffff163073ffffffffffffffffffffffffffffffffffffffff161480156128b057507f000000000000000000000000000000000000000000000000000000000000000046145b156128dd577f0000000000000000000000000000000000000000000000000000000000000000905061294b565b6129487f00000000000000000000000000000000000000000000000000000000000000007f00000000000000000000000000000000000000000000000000000000000000007f0000000000000000000000000000000000000000000000000000000000000000612fc8565b90505b90565b600082826040516020016129639291906152f8565b60405160208183030381529060405280519060200120905092915050565b60006040518060400160405280600281526020017f712f000000000000000000000000000000000000000000000000000000000000815250836040516020016129cb9291906149db565b6040516020818303038152906040529050816003826040516129ed91906149ff565b90815260200160405180910390209081612a07919061532f565b50505050565b60006040518060400160405280600281526020017f712f00000000000000000000000000000000000000000000000000000000000081525083604051602001612a579291906149db565b604051602081830303815290604052905081604051602001612a799190613f06565b604051602081830303815290604052600382604051612a9891906149ff565b90815260200160405180910390209081612ab2919061532f565b50505050565b612ac28282611530565b612b3957612acf81613002565b612add8360001c602061302f565b604051602001612aee9291906154ca565b6040516020818303038152906040526040517f08c379a0000000000000000000000000000000000000000000000000000000008152600401612b30919061553d565b60405180910390fd5b5050565b600260005403612b82576040517f08c379a0000000000000000000000000000000000000000000000000000000008152600401612b79906155ab565b60405180910390fd5b6002600081905550565b600082826000818110612ba257612ba161490f565b5b9050013560f81c60f81b60f81c9050600060ff168160ff1603612bdf57612bda83836001908092612bd5939291906155d5565b61326b565b612e02565b600160ff168160ff1603612c6a576021838390501015612c375760016040517f565ba7b9000000000000000000000000000000000000000000000000000000008152600401612c2e919061562c565b60405180910390fd5b600083836001908092612c4c939291906155d5565b810190612c59919061565c565b9050612c64816133c9565b50612e01565b600a60ff168160ff1603612d16576015838390501015612cc257600a6040517f565ba7b9000000000000000000000000000000000000000000000000000000008152600401612cb9919061562c565b60405180910390fd5b600083836001908092612cd7939291906155d5565b810190612ce491906156c7565b9050612d107fa7e0cd0f2772b23ee4c329892293a6bd99d48c306b094d6d008c9a8bb8b731e4826121e4565b50612e00565b600b60ff168160ff1603612dc2576015838390501015612d6e57600b6040517f565ba7b9000000000000000000000000000000000000000000000000000000008152600401612d65919061562c565b60405180910390fd5b600083836001908092612d83939291906155d5565b810190612d9091906156c7565b9050612dbc7fa7e0cd0f2772b23ee4c329892293a6bd99d48c306b094d6d008c9a8bb8b731e4826122cd565b50612dff565b806040517f0e8b3d1d000000000000000000000000000000000000000000000000000000008152600401612df6919061562c565b60405180910390fd5b5b5b5b505050565b6001600081905550565b6000806041835103612e525760008060006020860151925060408601519150606086015160001a9050612e468782858561354c565b94509450505050612e5b565b60006002915091505b9250929050565b60006004811115612e7657612e756156f4565b5b816004811115612e8957612e886156f4565b5b0315612fc55760016004811115612ea357612ea26156f4565b5b816004811115612eb657612eb56156f4565b5b03612ef6576040517f08c379a0000000000000000000000000000000000000000000000000000000008152600401612eed9061576f565b60405180910390fd5b60026004811115612f0a57612f096156f4565b5b816004811115612f1d57612f1c6156f4565b5b03612f5d576040517f08c379a0000000000000000000000000000000000000000000000000000000008152600401612f54906157db565b60405180910390fd5b60036004811115612f7157612f706156f4565b5b816004811115612f8457612f836156f4565b5b03612fc4576040517f08c379a0000000000000000000000000000000000000000000000000000000008152600401612fbb9061586d565b60405180910390fd5b5b50565b60008383834630604051602001612fe395949392919061588d565b6040516020818303038152906040528051906020012090509392505050565b60606130288273ffffffffffffffffffffffffffffffffffffffff16601460ff1661302f565b9050919050565b60606000600283600261304291906158e0565b61304c9190614694565b67ffffffffffffffff81111561306557613064613d73565b5b6040519080825280601f01601f1916602001820160405280156130975781602001600182028036833780820191505090505b5090507f3000000000000000000000000000000000000000000000000000000000000000816000815181106130cf576130ce61490f565b5b60200101907effffffffffffffffffffffffffffffffffffffffffffffffffffffffffffff1916908160001a9053507f7800000000000000000000000000000000000000000000000000000000000000816001815181106131335761313261490f565b5b60200101907effffffffffffffffffffffffffffffffffffffffffffffffffffffffffffff1916908160001a9053506000600184600261317391906158e0565b61317d9190614694565b90505b600181111561321d577f3031323334353637383961626364656600000000000000000000000000000000600f8616601081106131bf576131be61490f565b5b1a60f81b8282815181106131d6576131d561490f565b5b60200101907effffffffffffffffffffffffffffffffffffffffffffffffffffffffffffff1916908160001a905350600485901c94508061321690615922565b9050613180565b5060008414613261576040517f08c379a000000000000000000000000000000000000000000000000000000000815260040161325890615997565b60405180910390fd5b8091505092915050565b606082829050146132b1576040517f08c379a00000000000000000000000000000000000000000000000000000000081526004016132a890615a03565b60405180910390fd5b600080600084848101906132c59190615a23565b9250925092506000830361334c577ff9b3514f98ccd2df465094f95372549d36ff3e87827462e5395ff75ffed3d9ab82600f60008581526020019081526020016000208360405161331893929190615afa565b60405180910390a1600f6000838152602001908152602001600020600061333f9190613713565b60016005819055506133c2565b600283036133c1577f0c160f4f90c8f4cd8d3157735015428d4f21ef52edff7dcf93e5add4d0264b5182600f60008581526020019081526020016000208360405161339993929190615afa565b60405180910390a1600f600083815260200190815260200160002060006133c09190613713565b5b5b5050505050565b60006134096040518060400160405280600581526020017f5f7461696c000000000000000000000000000000000000000000000000000000815250611bcc565b90508063ffffffff168263ffffffff16111561345e5781816040517f186c5d53000000000000000000000000000000000000000000000000000000008152600401613455929190615b38565b60405180910390fd5b600061349e6040518060400160405280600581526020017f5f68656164000000000000000000000000000000000000000000000000000000815250611bcc565b90505b8263ffffffff168163ffffffff1610156134d1576134be8161362e565b80806134c990615b61565b9150506134a1565b506135116040518060400160405280600581526020017f5f6865616400000000000000000000000000000000000000000000000000000081525083612a0d565b7f32fd4e5662a5d890e9d364f2b91716af396675b17d0d56aa259e0a42ca55751c826040516135409190615b8d565b60405180910390a15050565b6000807f7fffffffffffffffffffffffffffffff5d576e7357a4501ddfe92f46681b20a08360001c1115613587576000600391509150613625565b6000600187878787604051600081526020016040526040516135ac9493929190615ba8565b6020604051602081039080840390855afa1580156135ce573d6000803e3d6000fd5b505050602060405103519050600073ffffffffffffffffffffffffffffffffffffffff168173ffffffffffffffffffffffffffffffffffffffff160361361c57600060019250925050613625565b80600092509250505b94509492505050565b6000816040516020016136419190613f06565b604051602081830303815290604052905060006040518060400160405280600281526020017f712f0000000000000000000000000000000000000000000000000000000000008152508260405160200161369c9291906149db565b60405160208183030381529060405290506003816040516136bd91906149ff565b908152602001604051809103902060006136d79190613753565b505050565b6040518060600160405280600073ffffffffffffffffffffffffffffffffffffffff16815260200160008152602001606081525090565b50805461371f90614348565b6000825580601f106137315750613750565b601f01602090049060005260206000209081019061374f9190613793565b5b50565b50805461375f90614348565b6000825580601f106137715750613790565b601f01602090049060005260206000209081019061378f9190613793565b5b50565b5b808211156137ac576000816000905550600101613794565b5090565b6000604051905090565b600080fd5b600080fd5b60007fffffffff0000000000000000000000000000000000000000000000000000000082169050919050565b6137f9816137c4565b811461380457600080fd5b50565b600081359050613816816137f0565b92915050565b600060208284031215613832576138316137ba565b5b600061384084828501613807565b91505092915050565b60008115159050919050565b61385e81613849565b82525050565b60006020820190506138796000830184613855565b92915050565b6000819050919050565b6138928161387f565b82525050565b60006020820190506138ad6000830184613889565b92915050565b600073ffffffffffffffffffffffffffffffffffffffff82169050919050565b60006138de826138b3565b9050919050565b6138ee816138d3565b81146138f957600080fd5b50565b60008135905061390b816138e5565b92915050565b600080fd5b600080fd5b600080fd5b60008083601f84011261393657613935613911565b5b8235905067ffffffffffffffff81111561395357613952613916565b5b60208301915083600182028301111561396f5761396e61391b565b5b9250929050565b61397f8161387f565b811461398a57600080fd5b50565b60008135905061399c81613976565b92915050565b600080600080606085870312156139bc576139bb6137ba565b5b60006139ca878288016138fc565b945050602085013567ffffffffffffffff8111156139eb576139ea6137bf565b5b6139f787828801613920565b93509350506040613a0a8782880161398d565b91505092959194509250565b613a1f816138d3565b82525050565b613a2e8161387f565b82525050565b600081519050919050565b600082825260208201905092915050565b60005b83811015613a6e578082015181840152602081019050613a53565b60008484015250505050565b6000601f19601f8301169050919050565b6000613a9682613a34565b613aa08185613a3f565b9350613ab0818560208601613a50565b613ab981613a7a565b840191505092915050565b6000606083016000830151613adc6000860182613a16565b506020830151613aef6020860182613a25565b5060408301518482036040860152613b078282613a8b565b9150508091505092915050565b6000819050919050565b613b2781613b14565b82525050565b60006040820190508181036000830152613b478185613ac4565b9050613b566020830184613b1e565b9392505050565b613b6681613b14565b8114613b7157600080fd5b50565b600081359050613b8381613b5d565b92915050565b600060208284031215613b9f57613b9e6137ba565b5b6000613bad84828501613b74565b91505092915050565b6000602082019050613bcb6000830184613b1e565b92915050565b600060208284031215613be757613be66137ba565b5b6000613bf5848285016138fc565b91505092915050565b60008083601f840112613c1457613c13613911565b5b8235905067ffffffffffffffff811115613c3157613c30613916565b5b602083019150836001820283011115613c4d57613c4c61391b565b5b9250929050565b60008060208385031215613c6b57613c6a6137ba565b5b600083013567ffffffffffffffff811115613c8957613c886137bf565b5b613c9585828601613bfe565b92509250509250929050565b60008060408385031215613cb857613cb76137ba565b5b6000613cc685828601613b74565b9250506020613cd7858286016138fc565b9150509250929050565b600060208284031215613cf757613cf66137ba565b5b6000613d058482850161398d565b91505092915050565b600080600060408486031215613d2757613d266137ba565b5b6000613d35868287016138fc565b935050602084013567ffffffffffffffff811115613d5657613d556137bf565b5b613d6286828701613920565b92509250509250925092565b600080fd5b7f4e487b7100000000000000000000000000000000000000000000000000000000600052604160045260246000fd5b613dab82613a7a565b810181811067ffffffffffffffff82111715613dca57613dc9613d73565b5b80604052505050565b6000613ddd6137b0565b9050613de98282613da2565b919050565b600067ffffffffffffffff821115613e0957613e08613d73565b5b613e1282613a7a565b9050602081019050919050565b82818337600083830152505050565b6000613e41613e3c84613dee565b613dd3565b905082815260208101848484011115613e5d57613e5c613d6e565b5b613e68848285613e1f565b509392505050565b600082601f830112613e8557613e84613911565b5b8135613e95848260208601613e2e565b91505092915050565b600060208284031215613eb457613eb36137ba565b5b600082013567ffffffffffffffff811115613ed257613ed16137bf565b5b613ede84828501613e70565b91505092915050565b600063ffffffff82169050919050565b613f0081613ee7565b82525050565b6000602082019050613f1b6000830184613ef7565b92915050565b600082825260208201905092915050565b6000613f3d82613a34565b613f478185613f21565b9350613f57818560208601613a50565b613f6081613a7a565b840191505092915050565b60006020820190508181036000830152613f858184613f32565b905092915050565b613f96816138d3565b82525050565b6000602082019050613fb16000830184613f8d565b92915050565b60008083601f840112613fcd57613fcc613911565b5b8235905067ffffffffffffffff811115613fea57613fe9613916565b5b6020830191508360208202830111156140065761400561391b565b5b9250929050565b60008060008060008060008060008060a08b8d0312156140305761402f6137ba565b5b60008b013567ffffffffffffffff81111561404e5761404d6137bf565b5b61405a8d828e01613fb7565b9a509a505060208b013567ffffffffffffffff81111561407d5761407c6137bf565b5b6140898d828e01613fb7565b985098505060408b013567ffffffffffffffff8111156140ac576140ab6137bf565b5b6140b88d828e01613fb7565b965096505060608b013567ffffffffffffffff8111156140db576140da6137bf565b5b6140e78d828e01613fb7565b945094505060808b013567ffffffffffffffff81111561410a576141096137bf565b5b6141168d828e01613fb7565b92509250509295989b9194979a5092959850565b600080fd5b6000606082840312156141455761414461412a565b5b81905092915050565b600080600060408486031215614167576141666137ba565b5b600084013567ffffffffffffffff811115614185576141846137bf565b5b6141918682870161412f565b935050602084013567ffffffffffffffff8111156141b2576141b16137bf565b5b6141be86828701613920565b92509250509250925092565b600080602083850312156141e1576141e06137ba565b5b600083013567ffffffffffffffff8111156141ff576141fe6137bf565b5b61420b85828601613920565b92509250509250929050565b6000806040838503121561422e5761422d6137ba565b5b600061423c858286016138fc565b925050602061424d8582860161398d565b9150509250929050565b600060408201905061426c6000830185613889565b6142796020830184613889565b9392505050565b600081905092915050565b60006142978385614280565b93506142a4838584613e1f565b82840190509392505050565b60006142bd82848661428b565b91508190509392505050565b60006080820190506142de6000830187613b1e565b6142eb6020830186613f8d565b6142f86040830185613889565b6143056060830184613b1e565b95945050505050565b600082905092915050565b7f4e487b7100000000000000000000000000000000000000000000000000000000600052602260045260246000fd5b6000600282049050600182168061436057607f821691505b60208210810361437357614372614319565b5b50919050565b60008190508160005260206000209050919050565b60006020601f8301049050919050565b600082821b905092915050565b6000600883026143db7fffffffffffffffffffffffffffffffffffffffffffffffffffffffffffffffff8261439e565b6143e5868361439e565b95508019841693508086168417925050509392505050565b6000819050919050565b600061442261441d6144188461387f565b6143fd565b61387f565b9050919050565b6000819050919050565b61443c83614407565b61445061444882614429565b8484546143ab565b825550505050565b600090565b614465614458565b614470818484614433565b505050565b5b818110156144945761448960008261445d565b600181019050614476565b5050565b601f8211156144d9576144aa81614379565b6144b38461438e565b810160208510156144c2578190505b6144d66144ce8561438e565b830182614475565b50505b505050565b600082821c905092915050565b60006144fc600019846008026144de565b1980831691505092915050565b600061451583836144eb565b9150826002028217905092915050565b61452f838361430e565b67ffffffffffffffff81111561454857614547613d73565b5b6145528254614348565b61455d828285614498565b6000601f83116001811461458c576000841561457a578287013590505b6145848582614509565b8655506145ec565b601f19841661459a86614379565b60005b828110156145c25784890135825560018201915060208501945060208101905061459d565b868310156145df57848901356145db601f8916826144eb565b8355505b6001600288020188555050505b50505050505050565b600082825260208201905092915050565b600061461283856145f5565b935061461f838584613e1f565b61462883613a7a565b840190509392505050565b60006040820190506146486000830186613889565b818103602083015261465b818486614606565b9050949350505050565b7f4e487b7100000000000000000000000000000000000000000000000000000000600052601160045260246000fd5b600061469f8261387f565b91506146aa8361387f565b92508282019050808211156146c2576146c1614665565b5b92915050565b7f416363657373436f6e74726f6c3a2063616e206f6e6c792072656e6f756e636560008201527f20726f6c657320666f722073656c660000000000000000000000000000000000602082015250565b6000614724602f836145f5565b915061472f826146c8565b604082019050919050565b6000602082019050818103600083015261475381614717565b9050919050565b7f4e487b7100000000000000000000000000000000000000000000000000000000600052601260045260246000fd5b60006147948261387f565b915061479f8361387f565b9250826147af576147ae61475a565b5b828204905092915050565b6147c381613ee7565b81146147ce57600080fd5b50565b6000815190506147e0816147ba565b92915050565b6000602082840312156147fc576147fb6137ba565b5b600061480a848285016147d1565b91505092915050565b60006060820190506148286000830186613f8d565b6148356020830185613f8d565b6148426040830184613889565b949350505050565b61485381613849565b811461485e57600080fd5b50565b6000815190506148708161484a565b92915050565b60006020828403121561488c5761488b6137ba565b5b600061489a84828501614861565b91505092915050565b7f6465706f736974206661696c6564000000000000000000000000000000000000600082015250565b60006148d9600e836145f5565b91506148e4826148a3565b602082019050919050565b60006020820190508181036000830152614908816148cc565b9050919050565b7f4e487b7100000000000000000000000000000000000000000000000000000000600052603260045260246000fd5b7f7769746864726177206661696c65640000000000000000000000000000000000600082015250565b6000614974600f836145f5565b915061497f8261493e565b602082019050919050565b600060208201905081810360008301526149a381614967565b9050919050565b60006149b582613a34565b6149bf8185614280565b93506149cf818560208601613a50565b80840191505092915050565b60006149e782856149aa565b91506149f382846149aa565b91508190509392505050565b6000614a0b82846149aa565b915081905092915050565b600080fd5b600080fd5b600080fd5b60008083356001602003843603038112614a4257614a41614a16565b5b80840192508235915067ffffffffffffffff821115614a6457614a63614a1b565b5b602083019250600182023603831315614a8057614a7f614a20565b5b509250929050565b600067ffffffffffffffff821115614aa357614aa2613d73565b5b602082029050602081019050919050565b6000614ac7614ac284614a88565b613dd3565b90508083825260208201905060208402830185811115614aea57614ae961391b565b5b835b81811015614b3157803567ffffffffffffffff811115614b0f57614b0e613911565b5b808601614b1c8982613e70565b85526020850194505050602081019050614aec565b5050509392505050565b600082601f830112614b5057614b4f613911565b5b8135614b60848260208601614ab4565b91505092915050565b600080600080600060a08688031215614b8557614b846137ba565b5b600086013567ffffffffffffffff811115614ba357614ba26137bf565b5b614baf88828901614b3b565b955050602086013567ffffffffffffffff811115614bd057614bcf6137bf565b5b614bdc88828901614b3b565b945050604086013567ffffffffffffffff811115614bfd57614bfc6137bf565b5b614c0988828901614b3b565b935050606086013567ffffffffffffffff811115614c2a57614c296137bf565b5b614c3688828901614b3b565b925050608086013567ffffffffffffffff811115614c5757614c566137bf565b5b614c6388828901614b3b565b9150509295509295909350565b600081519050919050565b600082825260208201905092915050565b6000819050602082019050919050565b6000614ca88383613a8b565b905092915050565b6000602082019050919050565b6000614cc882614c70565b614cd28185614c7b565b935083602082028501614ce485614c8c565b8060005b85811015614d205784840389528151614d018582614c9c565b9450614d0c83614cb0565b925060208a01995050600181019050614ce8565b50829750879550505050505092915050565b600060a0820190508181036000830152614d4c8188614cbd565b90508181036020830152614d608187614cbd565b90508181036040830152614d748186614cbd565b90508181036060830152614d888185614cbd565b90508181036080830152614d9c8184614cbd565b90509695505050505050565b600081519050919050565b614dbc82614da8565b67ffffffffffffffff811115614dd557614dd4613d73565b5b614ddf8254614348565b614dea828285614498565b600060209050601f831160018114614e1d5760008415614e0b578287015190505b614e158582614509565b865550614e7d565b601f198416614e2b86614379565b60005b82811015614e5357848901518255600182019150602085019450602081019050614e2e565b86831015614e705784890151614e6c601f8916826144eb565b8355505b6001600288020188555050505b505050505050565b600081601b0b9050919050565b614e9b81614e85565b8114614ea657600080fd5b50565b600081519050614eb881614e92565b92915050565b60008060408385031215614ed557614ed46137ba565b5b6000614ee385828601614ea9565b9250506020614ef4858286016147d1565b9150509250929050565b7f4f776e61626c653a206e6577206f776e657220697320746865207a65726f206160008201527f6464726573730000000000000000000000000000000000000000000000000000602082015250565b6000614f5a6026836145f5565b9150614f6582614efe565b604082019050919050565b60006020820190508181036000830152614f8981614f4d565b9050919050565b7f4f776e61626c653a2063616c6c6572206973206e6f7420746865206f776e6572600082015250565b6000614fc66020836145f5565b9150614fd182614f90565b602082019050919050565b60006020820190508181036000830152614ff581614fb9565b9050919050565b600061500782613ee7565b915061501283613ee7565b9250828201905063ffffffff81111561502e5761502d614665565b5b92915050565b600061504f61504a61504584613ee7565b6143fd565b61387f565b9050919050565b61505f81615034565b82525050565b600060408201905061507a6000830185615056565b818103602083015261508c8184613f32565b90509392505050565b60006150a18385613f21565b93506150ae838584613e1f565b6150b783613a7a565b840190509392505050565b600060608201905081810360008301526150dd818688615095565b90506150ec6020830185613ef7565b6150f96040830184613ef7565b95945050505050565b600061510d8261387f565b91507fffffffffffffffffffffffffffffffffffffffffffffffffffffffffffffffff820361513f5761513e614665565b5b600182019050919050565b600082905092915050565b60008190508160005260206000209050919050565b601f8211156151ab5761517c81615155565b6151858461438e565b81016020851015615194578190505b6151a86151a08561438e565b830182614475565b50505b505050565b6151ba838361514a565b67ffffffffffffffff8111156151d3576151d2613d73565b5b6151dd8254614348565b6151e882828561516a565b6000601f8311600181146152175760008415615205578287013590505b61520f8582614509565b865550615277565b601f19841661522586615155565b60005b8281101561524d57848901358255600182019150602085019450602081019050615228565b8683101561526a5784890135615266601f8916826144eb565b8355505b6001600288020188555050505b50505050505050565b600081905092915050565b7f1901000000000000000000000000000000000000000000000000000000000000600082015250565b60006152c1600283615280565b91506152cc8261528b565b600282019050919050565b6000819050919050565b6152f26152ed82613b14565b6152d7565b82525050565b6000615303826152b4565b915061530f82856152e1565b60208201915061531f82846152e1565b6020820191508190509392505050565b61533882613a34565b67ffffffffffffffff81111561535157615350613d73565b5b61535b8254614348565b61536682828561516a565b600060209050601f8311600181146153995760008415615387578287015190505b6153918582614509565b8655506153f9565b601f1984166153a786615155565b60005b828110156153cf578489015182556001820191506020850194506020810190506153aa565b868310156153ec57848901516153e8601f8916826144eb565b8355505b6001600288020188555050505b505050505050565b7f416363657373436f6e74726f6c3a206163636f756e7420000000000000000000600082015250565b6000615437601783615280565b915061544282615401565b601782019050919050565b600061545882614da8565b6154628185615280565b9350615472818560208601613a50565b80840191505092915050565b7f206973206d697373696e6720726f6c6520000000000000000000000000000000600082015250565b60006154b4601183615280565b91506154bf8261547e565b601182019050919050565b60006154d58261542a565b91506154e1828561544d565b91506154ec826154a7565b91506154f8828461544d565b91508190509392505050565b600061550f82614da8565b61551981856145f5565b9350615529818560208601613a50565b61553281613a7a565b840191505092915050565b600060208201905081810360008301526155578184615504565b905092915050565b7f5265656e7472616e637947756172643a207265656e7472616e742063616c6c00600082015250565b6000615595601f836145f5565b91506155a08261555f565b602082019050919050565b600060208201905081810360008301526155c481615588565b9050919050565b600080fd5b600080fd5b600080858511156155e9576155e86155cb565b5b838611156155fa576155f96155d0565b5b6001850283019150848603905094509492505050565b600060ff82169050919050565b61562681615610565b82525050565b6000602082019050615641600083018461561d565b92915050565b600081359050615656816147ba565b92915050565b600060208284031215615672576156716137ba565b5b600061568084828501615647565b91505092915050565b6000615694826138b3565b9050919050565b6156a481615689565b81146156af57600080fd5b50565b6000813590506156c18161569b565b92915050565b6000602082840312156156dd576156dc6137ba565b5b60006156eb848285016156b2565b91505092915050565b7f4e487b7100000000000000000000000000000000000000000000000000000000600052602160045260246000fd5b7f45434453413a20696e76616c6964207369676e61747572650000000000000000600082015250565b60006157596018836145f5565b915061576482615723565b602082019050919050565b600060208201905081810360008301526157888161574c565b9050919050565b7f45434453413a20696e76616c6964207369676e6174757265206c656e67746800600082015250565b60006157c5601f836145f5565b91506157d08261578f565b602082019050919050565b600060208201905081810360008301526157f4816157b8565b9050919050565b7f45434453413a20696e76616c6964207369676e6174757265202773272076616c60008201527f7565000000000000000000000000000000000000000000000000000000000000602082015250565b60006158576022836145f5565b9150615862826157fb565b604082019050919050565b600060208201905081810360008301526158868161584a565b9050919050565b600060a0820190506158a26000830188613b1e565b6158af6020830187613b1e565b6158bc6040830186613b1e565b6158c96060830185613889565b6158d66080830184613f8d565b9695505050505050565b60006158eb8261387f565b91506158f68361387f565b92508282026159048161387f565b9150828204841483151761591b5761591a614665565b5b5092915050565b600061592d8261387f565b9150600082036159405761593f614665565b5b600182039050919050565b7f537472696e67733a20686578206c656e67746820696e73756666696369656e74600082015250565b60006159816020836145f5565b915061598c8261594b565b602082019050919050565b600060208201905081810360008301526159b081615974565b9050919050565b7f63616e6e6f7420706172736520616374696f6e00000000000000000000000000600082015250565b60006159ed6013836145f5565b91506159f8826159b7565b602082019050919050565b60006020820190508181036000830152615a1c816159e0565b9050919050565b600080600060608486031215615a3c57615a3b6137ba565b5b6000615a4a8682870161398d565b9350506020615a5b8682870161398d565b9250506040615a6c8682870161398d565b9150509250925092565b60008154615a8381614348565b615a8d81866145f5565b94506001821660008114615aa85760018114615abe57615af1565b60ff198316865281151560200286019350615af1565b615ac785614379565b60005b83811015615ae957815481890152600182019150602081019050615aca565b808801955050505b50505092915050565b6000606082019050615b0f6000830186613889565b8181036020830152615b218185615a76565b9050615b306040830184613889565b949350505050565b6000604082019050615b4d6000830185615056565b615b5a6020830184615056565b9392505050565b6000615b6c82613ee7565b915063ffffffff8203615b8257615b81614665565b5b600182019050919050565b6000602082019050615ba26000830184615056565b92915050565b6000608082019050615bbd6000830187613b1e565b615bca602083018661561d565b615bd76040830185613b1e565b615be46060830184613b1e565b9594505050505056fea2646970667358221220ae327b26070aa429f2a60bac77d7c6b9abb5655a06dda2157c14dd099f705dc264736f6c63430008110033",
  "linkReferences": {},
  "deployedLinkReferences": {}
}