{
    "_format": "hh-sol-artifact-1",
    "contractName": "TestLensApiConsumerContract",
    "sourceName": "contracts/TestLensApiConsumerContract.sol",
    "abi": [
        {
            "inputs": [
                {
                    "internalType": "address",
                    "name": "phatAttestor",
                    "type": "address"
                }
            ],
            "stateMutability": "nonpayable",
            "type": "constructor"
        },
        {
            "inputs": [],
            "name": "BadAttestor",
            "type": "error"
        },
        {
            "inputs": [
                {
                    "internalType": "uint256",
                    "name": "kenLen",
                    "type": "uint256"
                },
                {
                    "internalType": "uint256",
                    "name": "valueLen",
                    "type": "uint256"
                }
            ],
            "name": "BadCondLen",
            "type": "error"
        },
        {
            "inputs": [
                {
                    "internalType": "uint256",
                    "name": "kenLen",
                    "type": "uint256"
                },
                {
                    "internalType": "uint256",
                    "name": "valueLen",
                    "type": "uint256"
                }
            ],
            "name": "BadUpdateLen",
            "type": "error"
        },
        {
            "inputs": [
                {
                    "internalType": "uint8",
                    "name": "actionId",
                    "type": "uint8"
                }
            ],
            "name": "CannotDecodeAction",
            "type": "error"
        },
        {
            "inputs": [
                {
                    "internalType": "bytes",
                    "name": "cond",
                    "type": "bytes"
                },
                {
                    "internalType": "uint32",
                    "name": "expected",
                    "type": "uint32"
                },
                {
                    "internalType": "uint32",
                    "name": "actual",
                    "type": "uint32"
                }
            ],
            "name": "CondNotMet",
            "type": "error"
        },
        {
            "inputs": [
                {
                    "internalType": "bytes",
                    "name": "data",
                    "type": "bytes"
                }
            ],
            "name": "Internal_toUint32Strict_outOfBounds",
            "type": "error"
        },
        {
            "inputs": [
                {
                    "internalType": "uint256",
                    "name": "targetIdx",
                    "type": "uint256"
                },
                {
                    "internalType": "uint256",
                    "name": "tailIdx",
                    "type": "uint256"
                }
            ],
            "name": "InvalidPopTarget",
            "type": "error"
        },
        {
            "inputs": [],
            "name": "MetaTxSignatureNotMatch",
            "type": "error"
        },
        {
            "inputs": [
                {
                    "internalType": "uint256",
                    "name": "actual",
                    "type": "uint256"
                },
                {
                    "internalType": "uint256",
                    "name": "currentNonce",
                    "type": "uint256"
                }
            ],
            "name": "NonceTooLow",
            "type": "error"
        },
        {
            "inputs": [
                {
                    "internalType": "uint8",
                    "name": "actionId",
                    "type": "uint8"
                }
            ],
            "name": "UnsupportedAction",
            "type": "error"
        },
        {
            "anonymous": false,
            "inputs": [
                {
                    "indexed": false,
                    "internalType": "uint256",
                    "name": "reqId",
                    "type": "uint256"
                },
                {
                    "indexed": false,
                    "internalType": "string",
                    "name": "pair",
                    "type": "string"
                },
                {
                    "indexed": false,
                    "internalType": "uint256",
                    "name": "errno",
                    "type": "uint256"
                }
            ],
            "name": "ErrorReceived",
            "type": "event"
        },
        {
            "anonymous": false,
            "inputs": [
                {
                    "indexed": false,
                    "internalType": "uint256",
                    "name": "",
                    "type": "uint256"
                }
            ],
            "name": "MessageProcessedTo",
            "type": "event"
        },
        {
            "anonymous": false,
            "inputs": [
                {
                    "indexed": false,
                    "internalType": "uint256",
                    "name": "idx",
                    "type": "uint256"
                },
                {
                    "indexed": false,
                    "internalType": "bytes",
                    "name": "data",
                    "type": "bytes"
                }
            ],
            "name": "MessageQueued",
            "type": "event"
        },
        {
            "anonymous": false,
            "inputs": [],
            "name": "MetaTxDecoded",
            "type": "event"
        },
        {
            "anonymous": false,
            "inputs": [
                {
                    "indexed": true,
                    "internalType": "address",
                    "name": "previousOwner",
                    "type": "address"
                },
                {
                    "indexed": true,
                    "internalType": "address",
                    "name": "newOwner",
                    "type": "address"
                }
            ],
            "name": "OwnershipTransferred",
            "type": "event"
        },
        {
            "anonymous": false,
            "inputs": [
                {
                    "indexed": false,
                    "internalType": "uint256",
                    "name": "reqId",
                    "type": "uint256"
                },
                {
                    "indexed": false,
                    "internalType": "string",
                    "name": "pair",
                    "type": "string"
                },
                {
                    "indexed": false,
                    "internalType": "uint256",
                    "name": "value",
                    "type": "uint256"
                }
            ],
            "name": "ResponseReceived",
            "type": "event"
        },
        {
            "anonymous": false,
            "inputs": [
                {
                    "indexed": true,
                    "internalType": "bytes32",
                    "name": "role",
                    "type": "bytes32"
                },
                {
                    "indexed": true,
                    "internalType": "bytes32",
                    "name": "previousAdminRole",
                    "type": "bytes32"
                },
                {
                    "indexed": true,
                    "internalType": "bytes32",
                    "name": "newAdminRole",
                    "type": "bytes32"
                }
            ],
            "name": "RoleAdminChanged",
            "type": "event"
        },
        {
            "anonymous": false,
            "inputs": [
                {
                    "indexed": true,
                    "internalType": "bytes32",
                    "name": "role",
                    "type": "bytes32"
                },
                {
                    "indexed": true,
                    "internalType": "address",
                    "name": "account",
                    "type": "address"
                },
                {
                    "indexed": true,
                    "internalType": "address",
                    "name": "sender",
                    "type": "address"
                }
            ],
            "name": "RoleGranted",
            "type": "event"
        },
        {
            "anonymous": false,
            "inputs": [
                {
                    "indexed": true,
                    "internalType": "bytes32",
                    "name": "role",
                    "type": "bytes32"
                },
                {
                    "indexed": true,
                    "internalType": "address",
                    "name": "account",
                    "type": "address"
                },
                {
                    "indexed": true,
                    "internalType": "address",
                    "name": "sender",
                    "type": "address"
                }
            ],
            "name": "RoleRevoked",
            "type": "event"
        },
        {
            "inputs": [],
            "name": "ATTESTOR_ROLE",
            "outputs": [
                {
                    "internalType": "bytes32",
                    "name": "",
                    "type": "bytes32"
                }
            ],
            "stateMutability": "view",
            "type": "function"
        },
        {
            "inputs": [],
            "name": "DEFAULT_ADMIN_ROLE",
            "outputs": [
                {
                    "internalType": "bytes32",
                    "name": "",
                    "type": "bytes32"
                }
            ],
            "stateMutability": "view",
            "type": "function"
        },
        {
            "inputs": [],
            "name": "ETHdAPIProxy",
            "outputs": [
                {
                    "internalType": "address",
                    "name": "",
                    "type": "address"
                }
            ],
            "stateMutability": "view",
            "type": "function"
        },
        {
            "inputs": [],
            "name": "USDCdAPIProxy",
            "outputs": [
                {
                    "internalType": "address",
                    "name": "",
                    "type": "address"
                }
            ],
            "stateMutability": "view",
            "type": "function"
        },
        {
            "inputs": [
                {
                    "internalType": "uint256",
                    "name": "_payment",
                    "type": "uint256"
                }
            ],
            "name": "calculatePayout",
            "outputs": [
                {
                    "internalType": "uint256",
                    "name": "",
                    "type": "uint256"
                }
            ],
            "stateMutability": "view",
            "type": "function"
        },
        {
            "inputs": [],
            "name": "checkFollowers",
            "outputs": [
                {
                    "internalType": "uint256",
                    "name": "",
                    "type": "uint256"
                }
            ],
            "stateMutability": "view",
            "type": "function"
        },
        {
            "inputs": [
                {
                    "internalType": "address",
                    "name": "",
                    "type": "address"
                },
                {
                    "internalType": "uint256",
                    "name": "",
                    "type": "uint256"
                }
            ],
            "name": "claimedThresholds",
            "outputs": [
                {
                    "internalType": "bool",
                    "name": "",
                    "type": "bool"
                }
            ],
            "stateMutability": "view",
            "type": "function"
        },
        {
            "inputs": [
                {
                    "internalType": "address",
                    "name": "_token",
                    "type": "address"
                }
            ],
            "name": "depositPayment",
            "outputs": [],
            "stateMutability": "nonpayable",
            "type": "function"
        },
        {
            "inputs": [],
            "name": "dummycount",
            "outputs": [
                {
                    "internalType": "uint256",
                    "name": "",
                    "type": "uint256"
                }
            ],
            "stateMutability": "view",
            "type": "function"
        },
        {
            "inputs": [
                {
                    "internalType": "bytes32",
                    "name": "role",
                    "type": "bytes32"
                }
            ],
            "name": "getRoleAdmin",
            "outputs": [
                {
                    "internalType": "bytes32",
                    "name": "",
                    "type": "bytes32"
                }
            ],
            "stateMutability": "view",
            "type": "function"
        },
        {
            "inputs": [
                {
                    "internalType": "bytes",
                    "name": "key",
                    "type": "bytes"
                }
            ],
            "name": "getStorage",
            "outputs": [
                {
                    "internalType": "bytes",
                    "name": "",
                    "type": "bytes"
                }
            ],
            "stateMutability": "view",
            "type": "function"
        },
        {
            "inputs": [
                {
                    "internalType": "bytes32",
                    "name": "role",
                    "type": "bytes32"
                },
                {
                    "internalType": "address",
                    "name": "account",
                    "type": "address"
                }
            ],
            "name": "grantRole",
            "outputs": [],
            "stateMutability": "nonpayable",
            "type": "function"
        },
        {
            "inputs": [
                {
                    "internalType": "bytes32",
                    "name": "role",
                    "type": "bytes32"
                },
                {
                    "internalType": "address",
                    "name": "account",
                    "type": "address"
                }
            ],
            "name": "hasRole",
            "outputs": [
                {
                    "internalType": "bool",
                    "name": "",
                    "type": "bool"
                }
            ],
            "stateMutability": "view",
            "type": "function"
        },
        {
            "inputs": [
                {
                    "internalType": "bytes",
                    "name": "malformedData",
                    "type": "bytes"
                }
            ],
            "name": "malformedRequest",
            "outputs": [],
            "stateMutability": "nonpayable",
            "type": "function"
        },
        {
            "inputs": [
                {
                    "internalType": "address",
                    "name": "from",
                    "type": "address"
                }
            ],
            "name": "metaTxGetNonce",
            "outputs": [
                {
                    "internalType": "uint256",
                    "name": "",
                    "type": "uint256"
                }
            ],
            "stateMutability": "view",
            "type": "function"
        },
        {
            "inputs": [
                {
                    "internalType": "address",
                    "name": "from",
                    "type": "address"
                },
                {
                    "internalType": "bytes",
                    "name": "data",
                    "type": "bytes"
                }
            ],
            "name": "metaTxPrepare",
            "outputs": [
                {
                    "components": [
                        {
                            "internalType": "address",
                            "name": "from",
                            "type": "address"
                        },
                        {
                            "internalType": "uint256",
                            "name": "nonce",
                            "type": "uint256"
                        },
                        {
                            "internalType": "bytes",
                            "name": "data",
                            "type": "bytes"
                        }
                    ],
                    "internalType": "struct MetaTxReceiver.ForwardRequest",
                    "name": "",
                    "type": "tuple"
                },
                {
                    "internalType": "bytes32",
                    "name": "",
                    "type": "bytes32"
                }
            ],
            "stateMutability": "view",
            "type": "function"
        },
        {
            "inputs": [
                {
                    "internalType": "address",
                    "name": "from",
                    "type": "address"
                },
                {
                    "internalType": "bytes",
                    "name": "data",
                    "type": "bytes"
                },
                {
                    "internalType": "uint256",
                    "name": "nonce",
                    "type": "uint256"
                }
            ],
            "name": "metaTxPrepareWithNonce",
            "outputs": [
                {
                    "components": [
                        {
                            "internalType": "address",
                            "name": "from",
                            "type": "address"
                        },
                        {
                            "internalType": "uint256",
                            "name": "nonce",
                            "type": "uint256"
                        },
                        {
                            "internalType": "bytes",
                            "name": "data",
                            "type": "bytes"
                        }
                    ],
                    "internalType": "struct MetaTxReceiver.ForwardRequest",
                    "name": "",
                    "type": "tuple"
                },
                {
                    "internalType": "bytes32",
                    "name": "",
                    "type": "bytes32"
                }
            ],
            "stateMutability": "view",
            "type": "function"
        },
        {
            "inputs": [
                {
                    "components": [
                        {
                            "internalType": "address",
                            "name": "from",
                            "type": "address"
                        },
                        {
                            "internalType": "uint256",
                            "name": "nonce",
                            "type": "uint256"
                        },
                        {
                            "internalType": "bytes",
                            "name": "data",
                            "type": "bytes"
                        }
                    ],
                    "internalType": "struct MetaTxReceiver.ForwardRequest",
                    "name": "req",
                    "type": "tuple"
                },
                {
                    "internalType": "bytes",
                    "name": "signature",
                    "type": "bytes"
                }
            ],
            "name": "metaTxRollupU256CondEq",
            "outputs": [
                {
                    "internalType": "bool",
                    "name": "",
                    "type": "bool"
                }
            ],
            "stateMutability": "nonpayable",
            "type": "function"
        },
        {
            "inputs": [
                {
                    "components": [
                        {
                            "internalType": "address",
                            "name": "from",
                            "type": "address"
                        },
                        {
                            "internalType": "uint256",
                            "name": "nonce",
                            "type": "uint256"
                        },
                        {
                            "internalType": "bytes",
                            "name": "data",
                            "type": "bytes"
                        }
                    ],
                    "internalType": "struct MetaTxReceiver.ForwardRequest",
                    "name": "req",
                    "type": "tuple"
                },
                {
                    "internalType": "bytes",
                    "name": "signature",
                    "type": "bytes"
                }
            ],
            "name": "metaTxVerify",
            "outputs": [
                {
                    "internalType": "bool",
                    "name": "",
                    "type": "bool"
                }
            ],
            "stateMutability": "view",
            "type": "function"
        },
        {
            "inputs": [],
            "name": "owner",
            "outputs": [
                {
                    "internalType": "address",
                    "name": "",
                    "type": "address"
                }
            ],
            "stateMutability": "view",
            "type": "function"
        },
        {
            "inputs": [],
            "name": "paymentRequirements",
            "outputs": [
                {
                    "internalType": "uint256",
                    "name": "",
                    "type": "uint256"
                }
            ],
            "stateMutability": "nonpayable",
            "type": "function"
        },
        {
            "inputs": [
                {
                    "internalType": "bytes",
                    "name": "key",
                    "type": "bytes"
                }
            ],
            "name": "queueGetBytes",
            "outputs": [
                {
                    "internalType": "bytes",
                    "name": "",
                    "type": "bytes"
                }
            ],
            "stateMutability": "view",
            "type": "function"
        },
        {
            "inputs": [],
            "name": "queueGetPrefix",
            "outputs": [
                {
                    "internalType": "bytes",
                    "name": "",
                    "type": "bytes"
                }
            ],
            "stateMutability": "pure",
            "type": "function"
        },
        {
            "inputs": [
                {
                    "internalType": "bytes",
                    "name": "key",
                    "type": "bytes"
                }
            ],
            "name": "queueGetUint",
            "outputs": [
                {
                    "internalType": "uint32",
                    "name": "",
                    "type": "uint32"
                }
            ],
            "stateMutability": "view",
            "type": "function"
        },
        {
            "inputs": [
                {
                    "internalType": "address",
                    "name": "_dapiProxy",
                    "type": "address"
                }
            ],
            "name": "readDapi",
            "outputs": [
                {
                    "internalType": "uint256",
                    "name": "",
                    "type": "uint256"
                }
            ],
            "stateMutability": "view",
            "type": "function"
        },
        {
            "inputs": [],
            "name": "renounceOwnership",
            "outputs": [],
            "stateMutability": "nonpayable",
            "type": "function"
        },
        {
            "inputs": [
                {
                    "internalType": "bytes32",
                    "name": "role",
                    "type": "bytes32"
                },
                {
                    "internalType": "address",
                    "name": "account",
                    "type": "address"
                }
            ],
            "name": "renounceRole",
            "outputs": [],
            "stateMutability": "nonpayable",
            "type": "function"
        },
        {
            "inputs": [
                {
                    "internalType": "string",
                    "name": "profileId",
                    "type": "string"
                }
            ],
            "name": "request",
            "outputs": [],
            "stateMutability": "nonpayable",
            "type": "function"
        },
        {
            "inputs": [
                {
                    "internalType": "bytes32",
                    "name": "role",
                    "type": "bytes32"
                },
                {
                    "internalType": "address",
                    "name": "account",
                    "type": "address"
                }
            ],
            "name": "revokeRole",
            "outputs": [],
            "stateMutability": "nonpayable",
            "type": "function"
        },
        {
            "inputs": [
                {
                    "internalType": "bytes[]",
                    "name": "condKeys",
                    "type": "bytes[]"
                },
                {
                    "internalType": "bytes[]",
                    "name": "condValues",
                    "type": "bytes[]"
                },
                {
                    "internalType": "bytes[]",
                    "name": "updateKeys",
                    "type": "bytes[]"
                },
                {
                    "internalType": "bytes[]",
                    "name": "updateValues",
                    "type": "bytes[]"
                },
                {
                    "internalType": "bytes[]",
                    "name": "actions",
                    "type": "bytes[]"
                }
            ],
            "name": "rollupU256CondEq",
            "outputs": [
                {
                    "internalType": "bool",
                    "name": "",
                    "type": "bool"
                }
            ],
            "stateMutability": "nonpayable",
            "type": "function"
        },
        {
            "inputs": [
                {
                    "internalType": "address",
                    "name": "phatAttestor",
                    "type": "address"
                }
            ],
            "name": "setAttestor",
            "outputs": [],
            "stateMutability": "nonpayable",
            "type": "function"
        },
        {
            "inputs": [
                {
                    "internalType": "address",
                    "name": "_eth",
                    "type": "address"
                }
            ],
            "name": "setDapiProxy",
            "outputs": [],
            "stateMutability": "nonpayable",
            "type": "function"
        },
        {
            "inputs": [
                {
                    "internalType": "bytes4",
                    "name": "interfaceId",
                    "type": "bytes4"
                }
            ],
            "name": "supportsInterface",
            "outputs": [
                {
                    "internalType": "bool",
                    "name": "",
                    "type": "bool"
                }
            ],
            "stateMutability": "view",
            "type": "function"
        },
        {
            "inputs": [],
            "name": "testValue",
            "outputs": [
                {
                    "internalType": "uint256",
                    "name": "",
                    "type": "uint256"
                }
            ],
            "stateMutability": "view",
            "type": "function"
        },
        {
            "inputs": [],
            "name": "thresholdFollowers1",
            "outputs": [
                {
                    "internalType": "uint256",
                    "name": "",
                    "type": "uint256"
                }
            ],
            "stateMutability": "view",
            "type": "function"
        },
        {
            "inputs": [],
            "name": "thresholdFollowers2",
            "outputs": [
                {
                    "internalType": "uint256",
                    "name": "",
                    "type": "uint256"
                }
            ],
            "stateMutability": "view",
            "type": "function"
        },
        {
            "inputs": [],
            "name": "thresholdFollowers3",
            "outputs": [
                {
                    "internalType": "uint256",
                    "name": "",
                    "type": "uint256"
                }
            ],
            "stateMutability": "view",
            "type": "function"
        },
        {
            "inputs": [],
            "name": "thresholdbonus",
            "outputs": [
                {
                    "internalType": "uint256",
                    "name": "",
                    "type": "uint256"
                }
            ],
            "stateMutability": "view",
            "type": "function"
        },
        {
            "inputs": [],
            "name": "thresholdpayment1",
            "outputs": [
                {
                    "internalType": "uint256",
                    "name": "",
                    "type": "uint256"
                }
            ],
            "stateMutability": "view",
            "type": "function"
        },
        {
            "inputs": [],
            "name": "thresholdpayment2",
            "outputs": [
                {
                    "internalType": "uint256",
                    "name": "",
                    "type": "uint256"
                }
            ],
            "stateMutability": "view",
            "type": "function"
        },
        {
            "inputs": [],
            "name": "thresholdpayment3",
            "outputs": [
                {
                    "internalType": "uint256",
                    "name": "",
                    "type": "uint256"
                }
            ],
            "stateMutability": "view",
            "type": "function"
        },
        {
            "inputs": [
                {
                    "internalType": "bytes",
                    "name": "_bytes",
                    "type": "bytes"
                }
            ],
            "name": "toUint32Strict",
            "outputs": [
                {
                    "internalType": "uint32",
                    "name": "",
                    "type": "uint32"
                }
            ],
            "stateMutability": "pure",
            "type": "function"
        },
        {
            "inputs": [
                {
                    "internalType": "address",
                    "name": "",
                    "type": "address"
                }
            ],
            "name": "totalEarned",
            "outputs": [
                {
                    "internalType": "uint256",
                    "name": "",
                    "type": "uint256"
                }
            ],
            "stateMutability": "view",
            "type": "function"
        },
        {
            "inputs": [
                {
                    "internalType": "address",
                    "name": "newOwner",
                    "type": "address"
                }
            ],
            "name": "transferOwnership",
            "outputs": [],
            "stateMutability": "nonpayable",
            "type": "function"
        },
        {
            "inputs": [
                {
                    "internalType": "address",
                    "name": "_token",
                    "type": "address"
                }
            ],
            "name": "withdrawPayment",
            "outputs": [],
            "stateMutability": "nonpayable",
            "type": "function"
        }
    ],
    "bytecode": "0x610140604052600060055560006006556000600755600060085560006009556000600a556000600b556000600c556000600d5560016013553480156200004457600080fd5b50604051620062213803806200622183398181016040528101906200006a9190620004ba565b6040518060400160405280601881526020017f50686174526f6c6c75704d6574615478526563656976657200000000000000008152506040518060400160405280600581526020017f302e302e31000000000000000000000000000000000000000000000000000000815250600160008190555060008280519060200120905060008280519060200120905060007f8b73c3c69bb8fe3d512ecc4cf759cc79239f7b179b0ffacaa9a75d522b39400f90508260e081815250508161010081815250504660a0818152505062000147818484620001e960201b60201c565b608081815250503073ffffffffffffffffffffffffffffffffffffffff1660c08173ffffffffffffffffffffffffffffffffffffffff16815250508061012081815250505050505050620001b0620001a46200022560201b60201c565b6200022d60201b60201c565b620001e27fa7e0cd0f2772b23ee4c329892293a6bd99d48c306b094d6d008c9a8bb8b731e482620002f360201b60201c565b5062000590565b600083838346306040516020016200020695949392919062000533565b6040516020818303038152906040528051906020012090509392505050565b600033905090565b6000600460009054906101000a900473ffffffffffffffffffffffffffffffffffffffff16905081600460006101000a81548173ffffffffffffffffffffffffffffffffffffffff021916908373ffffffffffffffffffffffffffffffffffffffff1602179055508173ffffffffffffffffffffffffffffffffffffffff168173ffffffffffffffffffffffffffffffffffffffff167f8be0079c531659141344cd1fd0a4f28419497f9722a3daafe3b4186f6b6457e060405160405180910390a35050565b620003058282620003e560201b60201c565b620003e15760016002600084815260200190815260200160002060000160008373ffffffffffffffffffffffffffffffffffffffff1673ffffffffffffffffffffffffffffffffffffffff16815260200190815260200160002060006101000a81548160ff021916908315150217905550620003866200022560201b60201c565b73ffffffffffffffffffffffffffffffffffffffff168173ffffffffffffffffffffffffffffffffffffffff16837f2f8788117e7eff1d82e926ec794901d17c78024a50270940304540a733656f0d60405160405180910390a45b5050565b60006002600084815260200190815260200160002060000160008373ffffffffffffffffffffffffffffffffffffffff1673ffffffffffffffffffffffffffffffffffffffff16815260200190815260200160002060009054906101000a900460ff16905092915050565b600080fd5b600073ffffffffffffffffffffffffffffffffffffffff82169050919050565b6000620004828262000455565b9050919050565b620004948162000475565b8114620004a057600080fd5b50565b600081519050620004b48162000489565b92915050565b600060208284031215620004d357620004d262000450565b5b6000620004e384828501620004a3565b91505092915050565b6000819050919050565b6200050181620004ec565b82525050565b6000819050919050565b6200051c8162000507565b82525050565b6200052d8162000475565b82525050565b600060a0820190506200054a6000830188620004f6565b620005596020830187620004f6565b620005686040830186620004f6565b62000577606083018562000511565b62000586608083018462000522565b9695505050505050565b60805160a05160c05160e0516101005161012051615c41620005e06000396000612900015260006129420152600061292101526000612856015260006128ac015260006128d50152615c416000f3fe608060405234801561001057600080fd5b506004361061027f5760003560e01c80638af5de721161015c578063caa0ff21116100ce578063ebde4f8d11610087578063ebde4f8d14610802578063eecfe32614610820578063f2c5210914610850578063f2fde38b1461086e578063f4034a961461088a578063f5770b1f146108ba5761027f565b8063caa0ff211461071c578063ce734b101461074c578063d547741f1461077c578063d56d017e14610798578063d7f59972146107b6578063dfb7397f146107d25761027f565b8063a217fddf11610120578063a217fddf14610632578063a3baef0114610650578063a51831a81461066e578063ad0bc4641461069e578063b4d70180146106ce578063bbbfe446146106ec5761027f565b80638af5de72146105785780638da5cb5b146105965780638f5744ac146105b457806391d14854146105d25780639b1d9692146106025761027f565b80633bb91c77116101f5578063649aca4a116101b9578063649aca4a146104ca57806367756fe9146104fa578063715018a614610516578063843739cd1461052057806388a46ccc1461053e5780638ac28d5a1461055c5761027f565b80633bb91c77146103fd5780635232f0d71461042d578063531161371461045e578063574cd14d1461048e57806362723644146104ac5761027f565b806329dde4441161024757806329dde444146103515780632c1998891461036d5780632f2ff15d14610389578063310edd44146103a557806336568abe146103c357806338ffaa3d146103df5761027f565b806301ffc9a71461028457806314cc30ef146102b457806322dae16c146102d2578063238ea82e14610303578063248a9ca314610321575b600080fd5b61029e6004803603810190610299919061383a565b6108d6565b6040516102ab9190613882565b60405180910390f35b6102bc610950565b6040516102c991906138b6565b60405180910390f35b6102ec60048036038101906102e791906139c0565b610956565b6040516102fa929190613b4b565b60405180910390f35b61030b610b1f565b60405161031891906138b6565b60405180910390f35b61033b60048036038101906103369190613ba7565b610b25565b6040516103489190613bd4565b60405180910390f35b61036b60048036038101906103669190613bef565b610b45565b005b61038760048036038101906103829190613c72565b610b91565b005b6103a3600480360381019061039e9190613cbf565b610c07565b005b6103ad610c28565b6040516103ba91906138b6565b60405180910390f35b6103dd60048036038101906103d89190613cbf565b610c2e565b005b6103e7610cb1565b6040516103f491906138b6565b60405180910390f35b61041760048036038101906104129190613cff565b610cc0565b60405161042491906138b6565b60405180910390f35b61044760048036038101906104429190613d2c565b610d0a565b604051610455929190613b4b565b60405180910390f35b61047860048036038101906104739190613ebc565b610d6b565b6040516104859190613f24565b60405180910390f35b610496610de6565b6040516104a39190613f4e565b60405180910390f35b6104b4610e0c565b6040516104c19190613bd4565b60405180910390f35b6104e460048036038101906104df9190613bef565b610e30565b6040516104f191906138b6565b60405180910390f35b610514600480360381019061050f9190613bef565b610e48565b005b61051e610f87565b005b610528610f9b565b6040516105359190613fb3565b60405180910390f35b610546610fd8565b60405161055391906138b6565b60405180910390f35b61057660048036038101906105719190613bef565b611400565b005b610580611518565b60405161058d91906138b6565b60405180910390f35b61059e61151e565b6040516105ab9190613f4e565b60405180910390f35b6105bc611548565b6040516105c991906138b6565b60405180910390f35b6105ec60048036038101906105e79190613cbf565b61154e565b6040516105f99190613882565b60405180910390f35b61061c60048036038101906106179190613ebc565b6115b9565b6040516106299190613fb3565b60405180910390f35b61063a6116c5565b6040516106479190613bd4565b60405180910390f35b6106586116cc565b60405161066591906138b6565b60405180910390f35b6106886004803603810190610683919061402b565b6116d2565b6040516106959190613882565b60405180910390f35b6106b860048036038101906106b3919061416c565b611790565b6040516106c59190613882565b60405180910390f35b6106d661199e565b6040516106e391906138b6565b60405180910390f35b6107066004803603810190610701919061416c565b6119a4565b6040516107139190613882565b60405180910390f35b61073660048036038101906107319190613ebc565b611b3a565b6040516107439190613fb3565b60405180910390f35b61076660048036038101906107619190613ebc565b611bea565b6040516107739190613f24565b60405180910390f35b61079660048036038101906107919190613cbf565b611cfd565b005b6107a0611d1e565b6040516107ad9190613f4e565b60405180910390f35b6107d060048036038101906107cb91906141e8565b611d44565b005b6107ec60048036038101906107e79190614235565b611e0e565b6040516107f99190613882565b60405180910390f35b61080a611e47565b60405161081791906138b6565b60405180910390f35b61083a60048036038101906108359190613bef565b611e4d565b60405161084791906138b6565b60405180910390f35b610858611eee565b60405161086591906138b6565b60405180910390f35b61088860048036038101906108839190613bef565b611ef4565b005b6108a4600480360381019061089f9190613bef565b611f77565b6040516108b191906138b6565b60405180910390f35b6108d460048036038101906108cf9190613bef565b611fc0565b005b60007f7965db0b000000000000000000000000000000000000000000000000000000007bffffffffffffffffffffffffffffffffffffffffffffffffffffffff1916827bffffffffffffffffffffffffffffffffffffffffffffffffffffffff19161480610949575061094882611fed565b5b9050919050565b600b5481565b61095e6136fa565b6000600160008773ffffffffffffffffffffffffffffffffffffffff1673ffffffffffffffffffffffffffffffffffffffff16815260200190815260200160002054831015610a255782600160008873ffffffffffffffffffffffffffffffffffffffff1673ffffffffffffffffffffffffffffffffffffffff168152602001908152602001600020546040517f045f356c000000000000000000000000000000000000000000000000000000008152600401610a1c929190614275565b60405180910390fd5b600060405180606001604052808873ffffffffffffffffffffffffffffffffffffffff16815260200185815260200187878080601f016020809104026020016040519081016040528093929190818152602001838380828437600081840152601f19601f8201169050808301925050505050505081525090506000610b0c7f2c521d146a6f6c09462cb178367b028f1718b1f01d7995bb405dae702c2bee7d89878a8a604051610ad69291906142ce565b6040518091039020604051602001610af194939291906142e7565b60405160208183030381529060405280519060200120612057565b9050818193509350505094509492505050565b60085481565b600060026000838152602001908152602001600020600101549050919050565b610b4d612071565b80600f60006101000a81548173ffffffffffffffffffffffffffffffffffffffff021916908373ffffffffffffffffffffffffffffffffffffffff16021790555050565b600060135490508282601060008481526020019081526020016000209182610bba929190614543565b50610be7818484604051602001610bd393929190614651565b6040516020818303038152906040526120ef565b50600160136000828254610bfb91906146b2565b92505081905550505050565b610c1082610b25565b610c19816121ee565b610c238383612202565b505050565b600c5481565b610c366122e3565b73ffffffffffffffffffffffffffffffffffffffff168173ffffffffffffffffffffffffffffffffffffffff1614610ca3576040517f08c379a0000000000000000000000000000000000000000000000000000000008152600401610c9a90614758565b60405180910390fd5b610cad82826122eb565b5050565b600080600d5490508091505090565b600080610cee600f60009054906101000a900473ffffffffffffffffffffffffffffffffffffffff16611e4d565b905060008184610cfe91906147a7565b90508092505050919050565b610d126136fa565b6000610d5f858585600160008a73ffffffffffffffffffffffffffffffffffffffff1673ffffffffffffffffffffffffffffffffffffffff16815260200190815260200160002054610956565b91509150935093915050565b600080825103610d7e5760009050610de1565b6020825114610dc457816040517f3d7dc906000000000000000000000000000000000000000000000000000000008152600401610dbb9190613fb3565b60405180910390fd5b600082806020019051810190610dda9190614804565b9050809150505b919050565b600e60009054906101000a900473ffffffffffffffffffffffffffffffffffffffff1681565b7fa7e0cd0f2772b23ee4c329892293a6bd99d48c306b094d6d008c9a8bb8b731e481565b60116020528060005260406000206000915090505481565b678ac7230489e80000600681905550678ac7230489e80000600781905550678ac7230489e80000600881905550678ac7230489e800006009819055506001600a819055506002600b819055506003600c819055506000600954600854600754600654610eb491906146b2565b610ebe91906146b2565b610ec891906146b2565b90508173ffffffffffffffffffffffffffffffffffffffff166323b872dd3330846040518463ffffffff1660e01b8152600401610f0793929190614831565b6020604051808303816000875af1925050508015610f4357506040513d601f19601f82011682018060405250810190610f409190614894565b60015b610f82576040517f08c379a0000000000000000000000000000000000000000000000000000000008152600401610f799061490d565b60405180910390fd5b505050565b610f8f612071565b610f9960006123cd565b565b60606040518060400160405280600281526020017f712f000000000000000000000000000000000000000000000000000000000000815250905090565b600080610fe3610cb1565b9050600c548111801561105b5750601260003373ffffffffffffffffffffffffffffffffffffffff1673ffffffffffffffffffffffffffffffffffffffff1681526020019081526020016000206002600381106110435761104261492d565b5b602091828204019190069054906101000a900460ff16155b1561112c576001601260003373ffffffffffffffffffffffffffffffffffffffff1673ffffffffffffffffffffffffffffffffffffffff1681526020019081526020016000206002600381106110b4576110b361492d565b5b602091828204019190066101000a81548160ff021916908315150217905550600854601160003373ffffffffffffffffffffffffffffffffffffffff1673ffffffffffffffffffffffffffffffffffffffff168152602001908152602001600020600082825461112491906146b2565b925050819055505b600b54811180156111a25750601260003373ffffffffffffffffffffffffffffffffffffffff1673ffffffffffffffffffffffffffffffffffffffff16815260200190815260200160002060016003811061118a5761118961492d565b5b602091828204019190069054906101000a900460ff16155b15611273576001601260003373ffffffffffffffffffffffffffffffffffffffff1673ffffffffffffffffffffffffffffffffffffffff1681526020019081526020016000206001600381106111fb576111fa61492d565b5b602091828204019190066101000a81548160ff021916908315150217905550600754601160003373ffffffffffffffffffffffffffffffffffffffff1673ffffffffffffffffffffffffffffffffffffffff168152602001908152602001600020600082825461126b91906146b2565b925050819055505b600a54811180156112e95750601260003373ffffffffffffffffffffffffffffffffffffffff1673ffffffffffffffffffffffffffffffffffffffff1681526020019081526020016000206000600381106112d1576112d061492d565b5b602091828204019190069054906101000a900460ff16155b156113ba576001601260003373ffffffffffffffffffffffffffffffffffffffff1673ffffffffffffffffffffffffffffffffffffffff1681526020019081526020016000206000600381106113425761134161492d565b5b602091828204019190066101000a81548160ff021916908315150217905550600654601160003373ffffffffffffffffffffffffffffffffffffffff1673ffffffffffffffffffffffffffffffffffffffff16815260200190815260200160002060008282546113b291906146b2565b925050819055505b601160003373ffffffffffffffffffffffffffffffffffffffff1673ffffffffffffffffffffffffffffffffffffffff1681526020019081526020016000205491505090565b6000601160003373ffffffffffffffffffffffffffffffffffffffff1673ffffffffffffffffffffffffffffffffffffffff16815260200190815260200160002081905550600061144f610fd8565b90506000811115611514578173ffffffffffffffffffffffffffffffffffffffff166323b872dd3330846040518463ffffffff1660e01b815260040161149793929190614831565b6020604051808303816000875af19250505080156114d357506040513d601f19601f820116820180604052508101906114d09190614894565b60015b611512576040517f08c379a0000000000000000000000000000000000000000000000000000000008152600401611509906149a8565b60405180910390fd5b505b5050565b60055481565b6000600460009054906101000a900473ffffffffffffffffffffffffffffffffffffffff16905090565b60075481565b60006002600084815260200190815260200160002060000160008373ffffffffffffffffffffffffffffffffffffffff1673ffffffffffffffffffffffffffffffffffffffff16815260200190815260200160002060009054906101000a900460ff16905092915050565b606060006040518060400160405280600281526020017f712f000000000000000000000000000000000000000000000000000000000000815250836040516020016116059291906149f9565b60405160208183030381529060405290506003816040516116269190614a1d565b9081526020016040518091039020805461163f90614366565b80601f016020809104026020016040519081016040528092919081815260200182805461166b90614366565b80156116b85780601f1061168d576101008083540402835291602001916116b8565b820191906000526020600020905b81548152906001019060200180831161169b57829003601f168201915b5050505050915050919050565b6000801b81565b60095481565b60003073ffffffffffffffffffffffffffffffffffffffff163373ffffffffffffffffffffffffffffffffffffffff161415801561173757506117357fa7e0cd0f2772b23ee4c329892293a6bd99d48c306b094d6d008c9a8bb8b731e43361154e565b155b1561176e576040517f20d82bef00000000000000000000000000000000000000000000000000000000815260040160405180910390fd5b6117808b8b8b8b8b8b8b8b8b8b612493565b90509a9950505050505050505050565b60008383836117a08383836119a4565b6117d6576040517fbde0493900000000000000000000000000000000000000000000000000000000815260040160405180910390fd5b600183602001356117e791906146b2565b600160008560000160208101906117fe9190613bef565b73ffffffffffffffffffffffffffffffffffffffff1673ffffffffffffffffffffffffffffffffffffffff168152602001908152602001600020819055506118787fa7e0cd0f2772b23ee4c329892293a6bd99d48c306b094d6d008c9a8bb8b731e48860000160208101906118739190613bef565b61154e565b6118ae576040517f20d82bef00000000000000000000000000000000000000000000000000000000815260040160405180910390fd5b60008060008060008b80604001906118c69190614a43565b8101906118d39190614b87565b945094509450945094507fd51c7c5244bba290f6c37777de0bc20a70c18abd55539658bc63251379297dcd60405160405180910390a13073ffffffffffffffffffffffffffffffffffffffff1663a51831a886868686866040518663ffffffff1660e01b815260040161194a959493929190614d50565b6020604051808303816000875af1158015611969573d6000803e3d6000fd5b505050506040513d601f19601f8201168201806040525081019061198d9190614894565b985050505050505050509392505050565b600d5481565b600080611a8d84848080601f016020809104026020016040519081016040528093929190818152602001838380828437600081840152601f19601f82011690508083019250505050505050611a7f7f2c521d146a6f6c09462cb178367b028f1718b1f01d7995bb405dae702c2bee7d886000016020810190611a269190613bef565b89602001358a8060400190611a3b9190614a43565b604051611a499291906142ce565b6040518091039020604051602001611a6494939291906142e7565b60405160208183030381529060405280519060200120612057565b61282b90919063ffffffff16565b9050846020013560016000876000016020810190611aab9190613bef565b73ffffffffffffffffffffffffffffffffffffffff1673ffffffffffffffffffffffffffffffffffffffff16815260200190815260200160002054148015611b305750846000016020810190611b019190613bef565b73ffffffffffffffffffffffffffffffffffffffff168173ffffffffffffffffffffffffffffffffffffffff16145b9150509392505050565b6060600382604051611b4c9190614a1d565b90815260200160405180910390208054611b6590614366565b80601f0160208091040260200160405190810160405280929190818152602001828054611b9190614366565b8015611bde5780601f10611bb357610100808354040283529160200191611bde565b820191906000526020600020905b815481529060010190602001808311611bc157829003601f168201915b50505050509050919050565b6000806040518060400160405280600281526020017f712f00000000000000000000000000000000000000000000000000000000000081525083604051602001611c359291906149f9565b6040516020818303038152906040529050611cf5600382604051611c599190614a1d565b90815260200160405180910390208054611c7290614366565b80601f0160208091040260200160405190810160405280929190818152602001828054611c9e90614366565b8015611ceb5780601f10611cc057610100808354040283529160200191611ceb565b820191906000526020600020905b815481529060010190602001808311611cce57829003601f168201915b5050505050610d6b565b915050919050565b611d0682610b25565b611d0f816121ee565b611d1983836122eb565b505050565b600f60009054906101000a900473ffffffffffffffffffffffffffffffffffffffff1681565b600060135490506040518060400160405280600d81526020017f6d616c666f726d65645f72657100000000000000000000000000000000000000815250601060008381526020019081526020016000209081611da09190614dd1565b50611dee83838080601f016020809104026020016040519081016040528093929190818152602001838380828437600081840152601f19601f820116905080830192505050505050506120ef565b50600160136000828254611e0291906146b2565b92505081905550505050565b60126020528160005260406000208160038110611e2a57600080fd5b60209182820401919006915091509054906101000a900460ff1681565b600a5481565b6000808273ffffffffffffffffffffffffffffffffffffffff166357de26a46040518163ffffffff1660e01b81526004016040805180830381865afa158015611e9a573d6000803e3d6000fd5b505050506040513d601f19601f82011682018060405250810190611ebe9190614edc565b5090506000817bffffffffffffffffffffffffffffffffffffffffffffffffffffffff1690508092505050919050565b60065481565b611efc612071565b600073ffffffffffffffffffffffffffffffffffffffff168173ffffffffffffffffffffffffffffffffffffffff1603611f6b576040517f08c379a0000000000000000000000000000000000000000000000000000000008152600401611f6290614f8e565b60405180910390fd5b611f74816123cd565b50565b6000600160008373ffffffffffffffffffffffffffffffffffffffff1673ffffffffffffffffffffffffffffffffffffffff168152602001908152602001600020549050919050565b611fea7fa7e0cd0f2772b23ee4c329892293a6bd99d48c306b094d6d008c9a8bb8b731e482612202565b50565b60007f01ffc9a7000000000000000000000000000000000000000000000000000000007bffffffffffffffffffffffffffffffffffffffffffffffffffffffff1916827bffffffffffffffffffffffffffffffffffffffffffffffffffffffff1916149050919050565b600061206a612064612852565b8361296c565b9050919050565b6120796122e3565b73ffffffffffffffffffffffffffffffffffffffff1661209761151e565b73ffffffffffffffffffffffffffffffffffffffff16146120ed576040517f08c379a00000000000000000000000000000000000000000000000000000000081526004016120e490614ffa565b60405180910390fd5b565b6000806121306040518060400160405280600581526020017f5f7461696c000000000000000000000000000000000000000000000000000000815250611bea565b90506000816040516020016121459190613f24565b6040516020818303038152906040529050612160818561299f565b6121ab6040518060400160405280600581526020017f5f7461696c0000000000000000000000000000000000000000000000000000008152506001846121a6919061501a565b612a2b565b7f907e5e373368eaab41cf7fd560721ee39c92964cc7abc6eba2acb769b1f7079982856040516121dc929190615083565b60405180910390a18192505050919050565b6121ff816121fa6122e3565b612ad6565b50565b61220c828261154e565b6122df5760016002600084815260200190815260200160002060000160008373ffffffffffffffffffffffffffffffffffffffff1673ffffffffffffffffffffffffffffffffffffffff16815260200190815260200160002060006101000a81548160ff0219169083151502179055506122846122e3565b73ffffffffffffffffffffffffffffffffffffffff168173ffffffffffffffffffffffffffffffffffffffff16837f2f8788117e7eff1d82e926ec794901d17c78024a50270940304540a733656f0d60405160405180910390a45b5050565b600033905090565b6122f5828261154e565b156123c95760006002600084815260200190815260200160002060000160008373ffffffffffffffffffffffffffffffffffffffff1673ffffffffffffffffffffffffffffffffffffffff16815260200190815260200160002060006101000a81548160ff02191690831515021790555061236e6122e3565b73ffffffffffffffffffffffffffffffffffffffff168173ffffffffffffffffffffffffffffffffffffffff16837ff6391f5c32d9c69d2a47ea670b442974b53935d1edc7fd64eb21e047a839171b60405160405180910390a45b5050565b6000600460009054906101000a900473ffffffffffffffffffffffffffffffffffffffff16905081600460006101000a81548173ffffffffffffffffffffffffffffffffffffffff021916908373ffffffffffffffffffffffffffffffffffffffff1602179055508173ffffffffffffffffffffffffffffffffffffffff168173ffffffffffffffffffffffffffffffffffffffff167f8be0079c531659141344cd1fd0a4f28419497f9722a3daafe3b4186f6b6457e060405160405180910390a35050565b600061249d612b5b565b888890508b8b9050146124ef578a8a9050898990506040517f60e568880000000000000000000000000000000000000000000000000000000081526004016124e6929190614275565b60405180910390fd5b8484905087879050146125415786869050858590506040517fcca1bd42000000000000000000000000000000000000000000000000000000008152600401612538929190614275565b60405180910390fd5b60005b8b8b905081101561272957600061262560038e8e858181106125695761256861492d565b5b905060200281019061257b9190614a43565b6040516125899291906142ce565b908152602001604051809103902080546125a290614366565b80601f01602080910402602001604051908101604052809291908181526020018280546125ce90614366565b801561261b5780601f106125f05761010080835404028352916020019161261b565b820191906000526020600020905b8154815290600101906020018083116125fe57829003601f168201915b5050505050610d6b565b905060006126998c8c8581811061263f5761263e61492d565b5b90506020028101906126519190614a43565b8080601f016020809104026020016040519081016040528093929190818152602001838380828437600081840152601f19601f82011690508083019250505050505050610d6b565b90508063ffffffff168263ffffffff1614612714578d8d848181106126c1576126c061492d565b5b90506020028101906126d39190614a43565b82846040517fb2e58ea600000000000000000000000000000000000000000000000000000000815260040161270b94939291906150e0565b60405180910390fd5b5050808061272190615120565b915050612544565b5060005b878790508110156127c15785858281811061274b5761274a61492d565b5b905060200281019061275d9190614a43565b60038a8a858181106127725761277161492d565b5b90506020028101906127849190614a43565b6040516127929291906142ce565b908152602001604051809103902091826127ad9291906151ce565b5080806127b990615120565b91505061272d565b5060005b83839050811015612810576127fd8484838181106127e6576127e561492d565b5b90506020028101906127f89190614a43565b612baa565b808061280890615120565b9150506127c5565b506001905061281d612e25565b9a9950505050505050505050565b600080600061283a8585612e2f565b9150915061284781612e80565b819250505092915050565b60007f000000000000000000000000000000000000000000000000000000000000000073ffffffffffffffffffffffffffffffffffffffff163073ffffffffffffffffffffffffffffffffffffffff161480156128ce57507f000000000000000000000000000000000000000000000000000000000000000046145b156128fb577f00000000000000000000000000000000000000000000000000000000000000009050612969565b6129667f00000000000000000000000000000000000000000000000000000000000000007f00000000000000000000000000000000000000000000000000000000000000007f0000000000000000000000000000000000000000000000000000000000000000612fe6565b90505b90565b60008282604051602001612981929190615316565b60405160208183030381529060405280519060200120905092915050565b60006040518060400160405280600281526020017f712f000000000000000000000000000000000000000000000000000000000000815250836040516020016129e99291906149f9565b604051602081830303815290604052905081600382604051612a0b9190614a1d565b90815260200160405180910390209081612a25919061534d565b50505050565b60006040518060400160405280600281526020017f712f00000000000000000000000000000000000000000000000000000000000081525083604051602001612a759291906149f9565b604051602081830303815290604052905081604051602001612a979190613f24565b604051602081830303815290604052600382604051612ab69190614a1d565b90815260200160405180910390209081612ad0919061534d565b50505050565b612ae0828261154e565b612b5757612aed81613020565b612afb8360001c602061304d565b604051602001612b0c9291906154e8565b6040516020818303038152906040526040517f08c379a0000000000000000000000000000000000000000000000000000000008152600401612b4e919061555b565b60405180910390fd5b5050565b600260005403612ba0576040517f08c379a0000000000000000000000000000000000000000000000000000000008152600401612b97906155c9565b60405180910390fd5b6002600081905550565b600082826000818110612bc057612bbf61492d565b5b9050013560f81c60f81b60f81c9050600060ff168160ff1603612bfd57612bf883836001908092612bf3939291906155f3565b613289565b612e20565b600160ff168160ff1603612c88576021838390501015612c555760016040517f565ba7b9000000000000000000000000000000000000000000000000000000008152600401612c4c919061564a565b60405180910390fd5b600083836001908092612c6a939291906155f3565b810190612c77919061567a565b9050612c82816133e7565b50612e1f565b600a60ff168160ff1603612d34576015838390501015612ce057600a6040517f565ba7b9000000000000000000000000000000000000000000000000000000008152600401612cd7919061564a565b60405180910390fd5b600083836001908092612cf5939291906155f3565b810190612d0291906156e5565b9050612d2e7fa7e0cd0f2772b23ee4c329892293a6bd99d48c306b094d6d008c9a8bb8b731e482612202565b50612e1e565b600b60ff168160ff1603612de0576015838390501015612d8c57600b6040517f565ba7b9000000000000000000000000000000000000000000000000000000008152600401612d83919061564a565b60405180910390fd5b600083836001908092612da1939291906155f3565b810190612dae91906156e5565b9050612dda7fa7e0cd0f2772b23ee4c329892293a6bd99d48c306b094d6d008c9a8bb8b731e4826122eb565b50612e1d565b806040517f0e8b3d1d000000000000000000000000000000000000000000000000000000008152600401612e14919061564a565b60405180910390fd5b5b5b5b505050565b6001600081905550565b6000806041835103612e705760008060006020860151925060408601519150606086015160001a9050612e648782858561356a565b94509450505050612e79565b60006002915091505b9250929050565b60006004811115612e9457612e93615712565b5b816004811115612ea757612ea6615712565b5b0315612fe35760016004811115612ec157612ec0615712565b5b816004811115612ed457612ed3615712565b5b03612f14576040517f08c379a0000000000000000000000000000000000000000000000000000000008152600401612f0b9061578d565b60405180910390fd5b60026004811115612f2857612f27615712565b5b816004811115612f3b57612f3a615712565b5b03612f7b576040517f08c379a0000000000000000000000000000000000000000000000000000000008152600401612f72906157f9565b60405180910390fd5b60036004811115612f8f57612f8e615712565b5b816004811115612fa257612fa1615712565b5b03612fe2576040517f08c379a0000000000000000000000000000000000000000000000000000000008152600401612fd99061588b565b60405180910390fd5b5b50565b600083838346306040516020016130019594939291906158ab565b6040516020818303038152906040528051906020012090509392505050565b60606130468273ffffffffffffffffffffffffffffffffffffffff16601460ff1661304d565b9050919050565b60606000600283600261306091906158fe565b61306a91906146b2565b67ffffffffffffffff81111561308357613082613d91565b5b6040519080825280601f01601f1916602001820160405280156130b55781602001600182028036833780820191505090505b5090507f3000000000000000000000000000000000000000000000000000000000000000816000815181106130ed576130ec61492d565b5b60200101907effffffffffffffffffffffffffffffffffffffffffffffffffffffffffffff1916908160001a9053507f7800000000000000000000000000000000000000000000000000000000000000816001815181106131515761315061492d565b5b60200101907effffffffffffffffffffffffffffffffffffffffffffffffffffffffffffff1916908160001a9053506000600184600261319191906158fe565b61319b91906146b2565b90505b600181111561323b577f3031323334353637383961626364656600000000000000000000000000000000600f8616601081106131dd576131dc61492d565b5b1a60f81b8282815181106131f4576131f361492d565b5b60200101907effffffffffffffffffffffffffffffffffffffffffffffffffffffffffffff1916908160001a905350600485901c94508061323490615940565b905061319e565b506000841461327f576040517f08c379a0000000000000000000000000000000000000000000000000000000008152600401613276906159b5565b60405180910390fd5b8091505092915050565b606082829050146132cf576040517f08c379a00000000000000000000000000000000000000000000000000000000081526004016132c690615a21565b60405180910390fd5b600080600084848101906132e39190615a41565b9250925092506000830361336a577ff9b3514f98ccd2df465094f95372549d36ff3e87827462e5395ff75ffed3d9ab82601060008581526020019081526020016000208360405161333693929190615b18565b60405180910390a160106000838152602001908152602001600020600061335d9190613731565b60016005819055506133e0565b600283036133df577f0c160f4f90c8f4cd8d3157735015428d4f21ef52edff7dcf93e5add4d0264b518260106000858152602001908152602001600020836040516133b793929190615b18565b60405180910390a16010600083815260200190815260200160002060006133de9190613731565b5b5b5050505050565b60006134276040518060400160405280600581526020017f5f7461696c000000000000000000000000000000000000000000000000000000815250611bea565b90508063ffffffff168263ffffffff16111561347c5781816040517f186c5d53000000000000000000000000000000000000000000000000000000008152600401613473929190615b56565b60405180910390fd5b60006134bc6040518060400160405280600581526020017f5f68656164000000000000000000000000000000000000000000000000000000815250611bea565b90505b8263ffffffff168163ffffffff1610156134ef576134dc8161364c565b80806134e790615b7f565b9150506134bf565b5061352f6040518060400160405280600581526020017f5f6865616400000000000000000000000000000000000000000000000000000081525083612a2b565b7f32fd4e5662a5d890e9d364f2b91716af396675b17d0d56aa259e0a42ca55751c8260405161355e9190615bab565b60405180910390a15050565b6000807f7fffffffffffffffffffffffffffffff5d576e7357a4501ddfe92f46681b20a08360001c11156135a5576000600391509150613643565b6000600187878787604051600081526020016040526040516135ca9493929190615bc6565b6020604051602081039080840390855afa1580156135ec573d6000803e3d6000fd5b505050602060405103519050600073ffffffffffffffffffffffffffffffffffffffff168173ffffffffffffffffffffffffffffffffffffffff160361363a57600060019250925050613643565b80600092509250505b94509492505050565b60008160405160200161365f9190613f24565b604051602081830303815290604052905060006040518060400160405280600281526020017f712f000000000000000000000000000000000000000000000000000000000000815250826040516020016136ba9291906149f9565b60405160208183030381529060405290506003816040516136db9190614a1d565b908152602001604051809103902060006136f59190613771565b505050565b6040518060600160405280600073ffffffffffffffffffffffffffffffffffffffff16815260200160008152602001606081525090565b50805461373d90614366565b6000825580601f1061374f575061376e565b601f01602090049060005260206000209081019061376d91906137b1565b5b50565b50805461377d90614366565b6000825580601f1061378f57506137ae565b601f0160209004906000526020600020908101906137ad91906137b1565b5b50565b5b808211156137ca5760008160009055506001016137b2565b5090565b6000604051905090565b600080fd5b600080fd5b60007fffffffff0000000000000000000000000000000000000000000000000000000082169050919050565b613817816137e2565b811461382257600080fd5b50565b6000813590506138348161380e565b92915050565b6000602082840312156138505761384f6137d8565b5b600061385e84828501613825565b91505092915050565b60008115159050919050565b61387c81613867565b82525050565b60006020820190506138976000830184613873565b92915050565b6000819050919050565b6138b08161389d565b82525050565b60006020820190506138cb60008301846138a7565b92915050565b600073ffffffffffffffffffffffffffffffffffffffff82169050919050565b60006138fc826138d1565b9050919050565b61390c816138f1565b811461391757600080fd5b50565b60008135905061392981613903565b92915050565b600080fd5b600080fd5b600080fd5b60008083601f8401126139545761395361392f565b5b8235905067ffffffffffffffff81111561397157613970613934565b5b60208301915083600182028301111561398d5761398c613939565b5b9250929050565b61399d8161389d565b81146139a857600080fd5b50565b6000813590506139ba81613994565b92915050565b600080600080606085870312156139da576139d96137d8565b5b60006139e88782880161391a565b945050602085013567ffffffffffffffff811115613a0957613a086137dd565b5b613a158782880161393e565b93509350506040613a28878288016139ab565b91505092959194509250565b613a3d816138f1565b82525050565b613a4c8161389d565b82525050565b600081519050919050565b600082825260208201905092915050565b60005b83811015613a8c578082015181840152602081019050613a71565b60008484015250505050565b6000601f19601f8301169050919050565b6000613ab482613a52565b613abe8185613a5d565b9350613ace818560208601613a6e565b613ad781613a98565b840191505092915050565b6000606083016000830151613afa6000860182613a34565b506020830151613b0d6020860182613a43565b5060408301518482036040860152613b258282613aa9565b9150508091505092915050565b6000819050919050565b613b4581613b32565b82525050565b60006040820190508181036000830152613b658185613ae2565b9050613b746020830184613b3c565b9392505050565b613b8481613b32565b8114613b8f57600080fd5b50565b600081359050613ba181613b7b565b92915050565b600060208284031215613bbd57613bbc6137d8565b5b6000613bcb84828501613b92565b91505092915050565b6000602082019050613be96000830184613b3c565b92915050565b600060208284031215613c0557613c046137d8565b5b6000613c138482850161391a565b91505092915050565b60008083601f840112613c3257613c3161392f565b5b8235905067ffffffffffffffff811115613c4f57613c4e613934565b5b602083019150836001820283011115613c6b57613c6a613939565b5b9250929050565b60008060208385031215613c8957613c886137d8565b5b600083013567ffffffffffffffff811115613ca757613ca66137dd565b5b613cb385828601613c1c565b92509250509250929050565b60008060408385031215613cd657613cd56137d8565b5b6000613ce485828601613b92565b9250506020613cf58582860161391a565b9150509250929050565b600060208284031215613d1557613d146137d8565b5b6000613d23848285016139ab565b91505092915050565b600080600060408486031215613d4557613d446137d8565b5b6000613d538682870161391a565b935050602084013567ffffffffffffffff811115613d7457613d736137dd565b5b613d808682870161393e565b92509250509250925092565b600080fd5b7f4e487b7100000000000000000000000000000000000000000000000000000000600052604160045260246000fd5b613dc982613a98565b810181811067ffffffffffffffff82111715613de857613de7613d91565b5b80604052505050565b6000613dfb6137ce565b9050613e078282613dc0565b919050565b600067ffffffffffffffff821115613e2757613e26613d91565b5b613e3082613a98565b9050602081019050919050565b82818337600083830152505050565b6000613e5f613e5a84613e0c565b613df1565b905082815260208101848484011115613e7b57613e7a613d8c565b5b613e86848285613e3d565b509392505050565b600082601f830112613ea357613ea261392f565b5b8135613eb3848260208601613e4c565b91505092915050565b600060208284031215613ed257613ed16137d8565b5b600082013567ffffffffffffffff811115613ef057613eef6137dd565b5b613efc84828501613e8e565b91505092915050565b600063ffffffff82169050919050565b613f1e81613f05565b82525050565b6000602082019050613f396000830184613f15565b92915050565b613f48816138f1565b82525050565b6000602082019050613f636000830184613f3f565b92915050565b600082825260208201905092915050565b6000613f8582613a52565b613f8f8185613f69565b9350613f9f818560208601613a6e565b613fa881613a98565b840191505092915050565b60006020820190508181036000830152613fcd8184613f7a565b905092915050565b60008083601f840112613feb57613fea61392f565b5b8235905067ffffffffffffffff81111561400857614007613934565b5b60208301915083602082028301111561402457614023613939565b5b9250929050565b60008060008060008060008060008060a08b8d03121561404e5761404d6137d8565b5b60008b013567ffffffffffffffff81111561406c5761406b6137dd565b5b6140788d828e01613fd5565b9a509a505060208b013567ffffffffffffffff81111561409b5761409a6137dd565b5b6140a78d828e01613fd5565b985098505060408b013567ffffffffffffffff8111156140ca576140c96137dd565b5b6140d68d828e01613fd5565b965096505060608b013567ffffffffffffffff8111156140f9576140f86137dd565b5b6141058d828e01613fd5565b945094505060808b013567ffffffffffffffff811115614128576141276137dd565b5b6141348d828e01613fd5565b92509250509295989b9194979a5092959850565b600080fd5b60006060828403121561416357614162614148565b5b81905092915050565b600080600060408486031215614185576141846137d8565b5b600084013567ffffffffffffffff8111156141a3576141a26137dd565b5b6141af8682870161414d565b935050602084013567ffffffffffffffff8111156141d0576141cf6137dd565b5b6141dc8682870161393e565b92509250509250925092565b600080602083850312156141ff576141fe6137d8565b5b600083013567ffffffffffffffff81111561421d5761421c6137dd565b5b6142298582860161393e565b92509250509250929050565b6000806040838503121561424c5761424b6137d8565b5b600061425a8582860161391a565b925050602061426b858286016139ab565b9150509250929050565b600060408201905061428a60008301856138a7565b61429760208301846138a7565b9392505050565b600081905092915050565b60006142b5838561429e565b93506142c2838584613e3d565b82840190509392505050565b60006142db8284866142a9565b91508190509392505050565b60006080820190506142fc6000830187613b3c565b6143096020830186613f3f565b61431660408301856138a7565b6143236060830184613b3c565b95945050505050565b600082905092915050565b7f4e487b7100000000000000000000000000000000000000000000000000000000600052602260045260246000fd5b6000600282049050600182168061437e57607f821691505b60208210810361439157614390614337565b5b50919050565b60008190508160005260206000209050919050565b60006020601f8301049050919050565b600082821b905092915050565b6000600883026143f97fffffffffffffffffffffffffffffffffffffffffffffffffffffffffffffffff826143bc565b61440386836143bc565b95508019841693508086168417925050509392505050565b6000819050919050565b600061444061443b6144368461389d565b61441b565b61389d565b9050919050565b6000819050919050565b61445a83614425565b61446e61446682614447565b8484546143c9565b825550505050565b600090565b614483614476565b61448e818484614451565b505050565b5b818110156144b2576144a760008261447b565b600181019050614494565b5050565b601f8211156144f7576144c881614397565b6144d1846143ac565b810160208510156144e0578190505b6144f46144ec856143ac565b830182614493565b50505b505050565b600082821c905092915050565b600061451a600019846008026144fc565b1980831691505092915050565b60006145338383614509565b9150826002028217905092915050565b61454d838361432c565b67ffffffffffffffff81111561456657614565613d91565b5b6145708254614366565b61457b8282856144b6565b6000601f8311600181146145aa5760008415614598578287013590505b6145a28582614527565b86555061460a565b601f1984166145b886614397565b60005b828110156145e0578489013582556001820191506020850194506020810190506145bb565b868310156145fd57848901356145f9601f891682614509565b8355505b6001600288020188555050505b50505050505050565b600082825260208201905092915050565b60006146308385614613565b935061463d838584613e3d565b61464683613a98565b840190509392505050565b600060408201905061466660008301866138a7565b8181036020830152614679818486614624565b9050949350505050565b7f4e487b7100000000000000000000000000000000000000000000000000000000600052601160045260246000fd5b60006146bd8261389d565b91506146c88361389d565b92508282019050808211156146e0576146df614683565b5b92915050565b7f416363657373436f6e74726f6c3a2063616e206f6e6c792072656e6f756e636560008201527f20726f6c657320666f722073656c660000000000000000000000000000000000602082015250565b6000614742602f83614613565b915061474d826146e6565b604082019050919050565b6000602082019050818103600083015261477181614735565b9050919050565b7f4e487b7100000000000000000000000000000000000000000000000000000000600052601260045260246000fd5b60006147b28261389d565b91506147bd8361389d565b9250826147cd576147cc614778565b5b828204905092915050565b6147e181613f05565b81146147ec57600080fd5b50565b6000815190506147fe816147d8565b92915050565b60006020828403121561481a576148196137d8565b5b6000614828848285016147ef565b91505092915050565b60006060820190506148466000830186613f3f565b6148536020830185613f3f565b61486060408301846138a7565b949350505050565b61487181613867565b811461487c57600080fd5b50565b60008151905061488e81614868565b92915050565b6000602082840312156148aa576148a96137d8565b5b60006148b88482850161487f565b91505092915050565b7f6465706f736974206661696c6564000000000000000000000000000000000000600082015250565b60006148f7600e83614613565b9150614902826148c1565b602082019050919050565b60006020820190508181036000830152614926816148ea565b9050919050565b7f4e487b7100000000000000000000000000000000000000000000000000000000600052603260045260246000fd5b7f7769746864726177206661696c65640000000000000000000000000000000000600082015250565b6000614992600f83614613565b915061499d8261495c565b602082019050919050565b600060208201905081810360008301526149c181614985565b9050919050565b60006149d382613a52565b6149dd818561429e565b93506149ed818560208601613a6e565b80840191505092915050565b6000614a0582856149c8565b9150614a1182846149c8565b91508190509392505050565b6000614a2982846149c8565b915081905092915050565b600080fd5b600080fd5b600080fd5b60008083356001602003843603038112614a6057614a5f614a34565b5b80840192508235915067ffffffffffffffff821115614a8257614a81614a39565b5b602083019250600182023603831315614a9e57614a9d614a3e565b5b509250929050565b600067ffffffffffffffff821115614ac157614ac0613d91565b5b602082029050602081019050919050565b6000614ae5614ae084614aa6565b613df1565b90508083825260208201905060208402830185811115614b0857614b07613939565b5b835b81811015614b4f57803567ffffffffffffffff811115614b2d57614b2c61392f565b5b808601614b3a8982613e8e565b85526020850194505050602081019050614b0a565b5050509392505050565b600082601f830112614b6e57614b6d61392f565b5b8135614b7e848260208601614ad2565b91505092915050565b600080600080600060a08688031215614ba357614ba26137d8565b5b600086013567ffffffffffffffff811115614bc157614bc06137dd565b5b614bcd88828901614b59565b955050602086013567ffffffffffffffff811115614bee57614bed6137dd565b5b614bfa88828901614b59565b945050604086013567ffffffffffffffff811115614c1b57614c1a6137dd565b5b614c2788828901614b59565b935050606086013567ffffffffffffffff811115614c4857614c476137dd565b5b614c5488828901614b59565b925050608086013567ffffffffffffffff811115614c7557614c746137dd565b5b614c8188828901614b59565b9150509295509295909350565b600081519050919050565b600082825260208201905092915050565b6000819050602082019050919050565b6000614cc68383613aa9565b905092915050565b6000602082019050919050565b6000614ce682614c8e565b614cf08185614c99565b935083602082028501614d0285614caa565b8060005b85811015614d3e5784840389528151614d1f8582614cba565b9450614d2a83614cce565b925060208a01995050600181019050614d06565b50829750879550505050505092915050565b600060a0820190508181036000830152614d6a8188614cdb565b90508181036020830152614d7e8187614cdb565b90508181036040830152614d928186614cdb565b90508181036060830152614da68185614cdb565b90508181036080830152614dba8184614cdb565b90509695505050505050565b600081519050919050565b614dda82614dc6565b67ffffffffffffffff811115614df357614df2613d91565b5b614dfd8254614366565b614e088282856144b6565b600060209050601f831160018114614e3b5760008415614e29578287015190505b614e338582614527565b865550614e9b565b601f198416614e4986614397565b60005b82811015614e7157848901518255600182019150602085019450602081019050614e4c565b86831015614e8e5784890151614e8a601f891682614509565b8355505b6001600288020188555050505b505050505050565b600081601b0b9050919050565b614eb981614ea3565b8114614ec457600080fd5b50565b600081519050614ed681614eb0565b92915050565b60008060408385031215614ef357614ef26137d8565b5b6000614f0185828601614ec7565b9250506020614f12858286016147ef565b9150509250929050565b7f4f776e61626c653a206e6577206f776e657220697320746865207a65726f206160008201527f6464726573730000000000000000000000000000000000000000000000000000602082015250565b6000614f78602683614613565b9150614f8382614f1c565b604082019050919050565b60006020820190508181036000830152614fa781614f6b565b9050919050565b7f4f776e61626c653a2063616c6c6572206973206e6f7420746865206f776e6572600082015250565b6000614fe4602083614613565b9150614fef82614fae565b602082019050919050565b6000602082019050818103600083015261501381614fd7565b9050919050565b600061502582613f05565b915061503083613f05565b9250828201905063ffffffff81111561504c5761504b614683565b5b92915050565b600061506d61506861506384613f05565b61441b565b61389d565b9050919050565b61507d81615052565b82525050565b60006040820190506150986000830185615074565b81810360208301526150aa8184613f7a565b90509392505050565b60006150bf8385613f69565b93506150cc838584613e3d565b6150d583613a98565b840190509392505050565b600060608201905081810360008301526150fb8186886150b3565b905061510a6020830185613f15565b6151176040830184613f15565b95945050505050565b600061512b8261389d565b91507fffffffffffffffffffffffffffffffffffffffffffffffffffffffffffffffff820361515d5761515c614683565b5b600182019050919050565b600082905092915050565b60008190508160005260206000209050919050565b601f8211156151c95761519a81615173565b6151a3846143ac565b810160208510156151b2578190505b6151c66151be856143ac565b830182614493565b50505b505050565b6151d88383615168565b67ffffffffffffffff8111156151f1576151f0613d91565b5b6151fb8254614366565b615206828285615188565b6000601f8311600181146152355760008415615223578287013590505b61522d8582614527565b865550615295565b601f19841661524386615173565b60005b8281101561526b57848901358255600182019150602085019450602081019050615246565b868310156152885784890135615284601f891682614509565b8355505b6001600288020188555050505b50505050505050565b600081905092915050565b7f1901000000000000000000000000000000000000000000000000000000000000600082015250565b60006152df60028361529e565b91506152ea826152a9565b600282019050919050565b6000819050919050565b61531061530b82613b32565b6152f5565b82525050565b6000615321826152d2565b915061532d82856152ff565b60208201915061533d82846152ff565b6020820191508190509392505050565b61535682613a52565b67ffffffffffffffff81111561536f5761536e613d91565b5b6153798254614366565b615384828285615188565b600060209050601f8311600181146153b757600084156153a5578287015190505b6153af8582614527565b865550615417565b601f1984166153c586615173565b60005b828110156153ed578489015182556001820191506020850194506020810190506153c8565b8683101561540a5784890151615406601f891682614509565b8355505b6001600288020188555050505b505050505050565b7f416363657373436f6e74726f6c3a206163636f756e7420000000000000000000600082015250565b600061545560178361529e565b91506154608261541f565b601782019050919050565b600061547682614dc6565b615480818561529e565b9350615490818560208601613a6e565b80840191505092915050565b7f206973206d697373696e6720726f6c6520000000000000000000000000000000600082015250565b60006154d260118361529e565b91506154dd8261549c565b601182019050919050565b60006154f382615448565b91506154ff828561546b565b915061550a826154c5565b9150615516828461546b565b91508190509392505050565b600061552d82614dc6565b6155378185614613565b9350615547818560208601613a6e565b61555081613a98565b840191505092915050565b600060208201905081810360008301526155758184615522565b905092915050565b7f5265656e7472616e637947756172643a207265656e7472616e742063616c6c00600082015250565b60006155b3601f83614613565b91506155be8261557d565b602082019050919050565b600060208201905081810360008301526155e2816155a6565b9050919050565b600080fd5b600080fd5b60008085851115615607576156066155e9565b5b83861115615618576156176155ee565b5b6001850283019150848603905094509492505050565b600060ff82169050919050565b6156448161562e565b82525050565b600060208201905061565f600083018461563b565b92915050565b600081359050615674816147d8565b92915050565b6000602082840312156156905761568f6137d8565b5b600061569e84828501615665565b91505092915050565b60006156b2826138d1565b9050919050565b6156c2816156a7565b81146156cd57600080fd5b50565b6000813590506156df816156b9565b92915050565b6000602082840312156156fb576156fa6137d8565b5b6000615709848285016156d0565b91505092915050565b7f4e487b7100000000000000000000000000000000000000000000000000000000600052602160045260246000fd5b7f45434453413a20696e76616c6964207369676e61747572650000000000000000600082015250565b6000615777601883614613565b915061578282615741565b602082019050919050565b600060208201905081810360008301526157a68161576a565b9050919050565b7f45434453413a20696e76616c6964207369676e6174757265206c656e67746800600082015250565b60006157e3601f83614613565b91506157ee826157ad565b602082019050919050565b60006020820190508181036000830152615812816157d6565b9050919050565b7f45434453413a20696e76616c6964207369676e6174757265202773272076616c60008201527f7565000000000000000000000000000000000000000000000000000000000000602082015250565b6000615875602283614613565b915061588082615819565b604082019050919050565b600060208201905081810360008301526158a481615868565b9050919050565b600060a0820190506158c06000830188613b3c565b6158cd6020830187613b3c565b6158da6040830186613b3c565b6158e760608301856138a7565b6158f46080830184613f3f565b9695505050505050565b60006159098261389d565b91506159148361389d565b92508282026159228161389d565b9150828204841483151761593957615938614683565b5b5092915050565b600061594b8261389d565b91506000820361595e5761595d614683565b5b600182039050919050565b7f537472696e67733a20686578206c656e67746820696e73756666696369656e74600082015250565b600061599f602083614613565b91506159aa82615969565b602082019050919050565b600060208201905081810360008301526159ce81615992565b9050919050565b7f63616e6e6f7420706172736520616374696f6e00000000000000000000000000600082015250565b6000615a0b601383614613565b9150615a16826159d5565b602082019050919050565b60006020820190508181036000830152615a3a816159fe565b9050919050565b600080600060608486031215615a5a57615a596137d8565b5b6000615a68868287016139ab565b9350506020615a79868287016139ab565b9250506040615a8a868287016139ab565b9150509250925092565b60008154615aa181614366565b615aab8186614613565b94506001821660008114615ac65760018114615adc57615b0f565b60ff198316865281151560200286019350615b0f565b615ae585614397565b60005b83811015615b0757815481890152600182019150602081019050615ae8565b808801955050505b50505092915050565b6000606082019050615b2d60008301866138a7565b8181036020830152615b3f8185615a94565b9050615b4e60408301846138a7565b949350505050565b6000604082019050615b6b6000830185615074565b615b786020830184615074565b9392505050565b6000615b8a82613f05565b915063ffffffff8203615ba057615b9f614683565b5b600182019050919050565b6000602082019050615bc06000830184615074565b92915050565b6000608082019050615bdb6000830187613b3c565b615be8602083018661563b565b615bf56040830185613b3c565b615c026060830184613b3c565b9594505050505056fea2646970667358221220192515c3996036467ec22d6ad5e5e8ec02f69b2f017229261e6c3a58e8b8d3a264736f6c63430008110033",
    "linkReferences": {},
    "deployedLinkReferences": {}
}